{"abi":[{"type":"constructor","inputs":[{"name":"_proposal","type":"string","internalType":"string"},{"name":"_options","type":"string[]","internalType":"string[]"},{"name":"votingPeriod","type":"uint256","internalType":"uint256"}],"stateMutability":"nonpayable"},{"type":"function","name":"eip712Domain","inputs":[],"outputs":[{"name":"fields","type":"bytes1","internalType":"bytes1"},{"name":"name","type":"string","internalType":"string"},{"name":"version","type":"string","internalType":"string"},{"name":"chainId","type":"uint256","internalType":"uint256"},{"name":"verifyingContract","type":"address","internalType":"address"},{"name":"salt","type":"bytes32","internalType":"bytes32"},{"name":"extensions","type":"uint256[]","internalType":"uint256[]"}],"stateMutability":"view"},{"type":"function","name":"finalize","inputs":[],"outputs":[],"stateMutability":"nonpayable"},{"type":"function","name":"getUserVote","inputs":[{"name":"signature","type":"tuple","internalType":"struct Permission","components":[{"name":"publicKey","type":"bytes32","internalType":"bytes32"},{"name":"signature","type":"bytes","internalType":"bytes"}]}],"outputs":[{"name":"","type":"bytes","internalType":"bytes"}],"stateMutability":"view"},{"type":"function","name":"options","inputs":[{"name":"","type":"uint256","internalType":"uint256"}],"outputs":[{"name":"","type":"string","internalType":"string"}],"stateMutability":"view"},{"type":"function","name":"proposal","inputs":[],"outputs":[{"name":"","type":"string","internalType":"string"}],"stateMutability":"view"},{"type":"function","name":"vote","inputs":[{"name":"voteBytes","type":"tuple","internalType":"struct Euint8","components":[{"name":"ctHash","type":"uint256","internalType":"uint256"},{"name":"securityZone","type":"uint8","internalType":"uint8"},{"name":"utype","type":"uint8","internalType":"uint8"},{"name":"signature","type":"bytes","internalType":"bytes"}]}],"outputs":[],"stateMutability":"nonpayable"},{"type":"function","name":"voteEndTime","inputs":[],"outputs":[{"name":"","type":"uint256","internalType":"uint256"}],"stateMutability":"view"},{"type":"function","name":"winning","inputs":[],"outputs":[{"name":"","type":"uint8","internalType":"uint8"},{"name":"","type":"uint16","internalType":"uint16"}],"stateMutability":"view"},{"type":"event","name":"EIP712DomainChanged","inputs":[],"anonymous":false},{"type":"error","name":"ECDSAInvalidSignature","inputs":[]},{"type":"error","name":"ECDSAInvalidSignatureLength","inputs":[{"name":"length","type":"uint256","internalType":"uint256"}]},{"type":"error","name":"ECDSAInvalidSignatureS","inputs":[{"name":"s","type":"bytes32","internalType":"bytes32"}]},{"type":"error","name":"InvalidEncryptedInput","inputs":[{"name":"got","type":"uint8","internalType":"uint8"},{"name":"expected","type":"uint8","internalType":"uint8"}]},{"type":"error","name":"InvalidShortString","inputs":[]},{"type":"error","name":"SecurityZoneOutOfBounds","inputs":[{"name":"value","type":"int32","internalType":"int32"}]},{"type":"error","name":"SignerNotMessageSender","inputs":[]},{"type":"error","name":"SignerNotOwner","inputs":[]},{"type":"error","name":"StringTooLong","inputs":[{"name":"str","type":"string","internalType":"string"}]}],"bytecode":{"object":"0x61016060405261001560106102be60201b60201c565b60025560405180608001604052806100325f6102d660201b60201c565b815260200161004760016102d660201b60201c565b815260200161005c60026102d660201b60201c565b815260200161007160036102d660201b60201c565b8152506003906004610084929190610695565b50604051806080016040528061009f5f6102ee60201b60201c565b81526020016100b35f6102ee60201b60201c565b81526020016100c75f6102ee60201b60201c565b81526020016100db5f6102ee60201b60201c565b815250600a9060046100ee9291906106d5565b503480156100fa575f5ffd5b506040516138ea3803806138ea833981810160405281019061011c9190610a7f565b6040518060400160405280601181526020017f4c7578464845205065726d697373696f6e0000000000000000000000000000008152506040518060400160405280600381526020017f312e30000000000000000000000000000000000000000000000000000000000081525061019b5f8361030660201b90919060201c565b61012081815250506101b760018261030660201b90919060201c565b6101408181525050818051906020012060e08181525050808051906020012061010081815250504660a081815250506101f461035360201b60201c565b608081815250503073ffffffffffffffffffffffffffffffffffffffff1660c08173ffffffffffffffffffffffffffffffffffffffff16815250505050600460ff16600880549050111561027d576040517f08c379a000000000000000000000000000000000000000000000000000000000815260040161027490610b61565b60405180910390fd5b826007908161028c9190610d86565b5081600890805190602001906102a3929190610715565b5080426102b09190610e82565b600981905550505050611279565b5f6102cf825f6103ad60201b60201c565b9050919050565b5f6102e7825f6103cd60201b60201c565b9050919050565b5f6102ff825f6103ed60201b60201c565b9050919050565b5f602083511015610327576103208361040d60201b60201c565b905061034d565b826103378361047260201b60201c565b5f0190816103459190610d86565b5060ff5f1b90505b92915050565b5f7f8b73c3c69bb8fe3d512ecc4cf759cc79239f7b179b0ffacaa9a75d522b39400f60e051610100514630604051602001610392959493929190610f1b565b60405160208183030381529060405280519060200120905090565b5f5f6103c18460048561047b60201b60201c565b90508091505092915050565b5f5f6103e18460028561047b60201b60201c565b90508091505092915050565b5f5f6104018460038561047b60201b60201c565b90508091505092915050565b5f5f829050601f8151111561045957826040517f305a27a90000000000000000000000000000000000000000000000000000000081526004016104509190610fa4565b60405180910390fd5b80518161046590610ff1565b5f1c175f1b915050919050565b5f819050919050565b5f73020000000000000000000000000000000000008073ffffffffffffffffffffffffffffffffffffffff16631888debd84601a5f67ffffffffffffffff8111156104c9576104c8610846565b5b6040519080825280602002602001820160405280156104f75781602001602082028036833780820191505090505b5061051a898960ff1661050f8a61058260201b60201c565b6105d960201b60201c565b6040518563ffffffff1660e01b8152600401610539949392919061119c565b6020604051808303815f875af1158015610555573d5f5f3e3d5ffd5b505050506040513d601f19601f8201168201806040525081019061057991906111ed565b90509392505050565b5f5f8260030b12156105cb57816040517f8f568bf80000000000000000000000000000000000000000000000000000000081526004016105c29190611233565b60405180910390fd5b8163ffffffff169050919050565b60605f600367ffffffffffffffff8111156105f7576105f6610846565b5b6040519080825280602002602001820160405280156106255781602001602082028036833780820191505090505b50905084815f8151811061063c5761063b61124c565b5b602002602001018181525050838160018151811061065d5761065c61124c565b5b602002602001018181525050828160028151811061067e5761067d61124c565b5b602002602001018181525050809150509392505050565b82600481019282156106c4579160200282015b828111156106c35782518255916020019190600101906106a8565b5b5090506106d1919061076c565b5090565b8260048101928215610704579160200282015b828111156107035782518255916020019190600101906106e8565b5b5090506107119190610787565b5090565b828054828255905f5260205f2090810192821561075b579160200282015b8281111561075a57825182908161074a9190610d86565b5091602001919060010190610733565b5b50905061076891906107a2565b5090565b5b80821115610783575f815f90555060010161076d565b5090565b5b8082111561079e575f815f905550600101610788565b5090565b5b808211156107c1575f81816107b891906107c5565b506001016107a3565b5090565b5080546107d190610bb6565b5f825580601f106107e257506107ff565b601f0160209004905f5260205f20908101906107fe9190610802565b5b50565b5b80821115610819575f815f905550600101610803565b5090565b5f604051905090565b5f5ffd5b5f5ffd5b5f5ffd5b5f5ffd5b5f601f19601f8301169050919050565b7f4e487b71000000000000000000000000000000000000000000000000000000005f52604160045260245ffd5b61087c82610836565b810181811067ffffffffffffffff8211171561089b5761089a610846565b5b80604052505050565b5f6108ad61081d565b90506108b98282610873565b919050565b5f67ffffffffffffffff8211156108d8576108d7610846565b5b6108e182610836565b9050602081019050919050565b8281835e5f83830152505050565b5f61090e610909846108be565b6108a4565b90508281526020810184848401111561092a57610929610832565b5b6109358482856108ee565b509392505050565b5f82601f8301126109515761095061082e565b5b81516109618482602086016108fc565b91505092915050565b5f67ffffffffffffffff82111561098457610983610846565b5b602082029050602081019050919050565b5f5ffd5b5f6109ab6109a68461096a565b6108a4565b905080838252602082019050602084028301858111156109ce576109cd610995565b5b835b81811015610a1557805167ffffffffffffffff8111156109f3576109f261082e565b5b808601610a00898261093d565b855260208501945050506020810190506109d0565b5050509392505050565b5f82601f830112610a3357610a3261082e565b5b8151610a43848260208601610999565b91505092915050565b5f819050919050565b610a5e81610a4c565b8114610a68575f5ffd5b50565b5f81519050610a7981610a55565b92915050565b5f5f5f60608486031215610a9657610a95610826565b5b5f84015167ffffffffffffffff811115610ab357610ab261082a565b5b610abf8682870161093d565b935050602084015167ffffffffffffffff811115610ae057610adf61082a565b5b610aec86828701610a1f565b9250506040610afd86828701610a6b565b9150509250925092565b5f82825260208201905092915050565b7f746f6f206d616e79206f7074696f6e73210000000000000000000000000000005f82015250565b5f610b4b601183610b07565b9150610b5682610b17565b602082019050919050565b5f6020820190508181035f830152610b7881610b3f565b9050919050565b5f81519050919050565b7f4e487b71000000000000000000000000000000000000000000000000000000005f52602260045260245ffd5b5f6002820490506001821680610bcd57607f821691505b602082108103610be057610bdf610b89565b5b50919050565b5f819050815f5260205f209050919050565b5f6020601f8301049050919050565b5f82821b905092915050565b5f60088302610c427fffffffffffffffffffffffffffffffffffffffffffffffffffffffffffffffff82610c07565b610c4c8683610c07565b95508019841693508086168417925050509392505050565b5f819050919050565b5f610c87610c82610c7d84610a4c565b610c64565b610a4c565b9050919050565b5f819050919050565b610ca083610c6d565b610cb4610cac82610c8e565b848454610c13565b825550505050565b5f5f905090565b610ccb610cbc565b610cd6818484610c97565b505050565b5b81811015610cf957610cee5f82610cc3565b600181019050610cdc565b5050565b601f821115610d3e57610d0f81610be6565b610d1884610bf8565b81016020851015610d27578190505b610d3b610d3385610bf8565b830182610cdb565b50505b505050565b5f82821c905092915050565b5f610d5e5f1984600802610d43565b1980831691505092915050565b5f610d768383610d4f565b9150826002028217905092915050565b610d8f82610b7f565b67ffffffffffffffff811115610da857610da7610846565b5b610db28254610bb6565b610dbd828285610cfd565b5f60209050601f831160018114610dee575f8415610ddc578287015190505b610de68582610d6b565b865550610e4d565b601f198416610dfc86610be6565b5f5b82811015610e2357848901518255600182019150602085019450602081019050610dfe565b86831015610e405784890151610e3c601f891682610d4f565b8355505b6001600288020188555050505b505050505050565b7f4e487b71000000000000000000000000000000000000000000000000000000005f52601160045260245ffd5b5f610e8c82610a4c565b9150610e9783610a4c565b9250828201905080821115610eaf57610eae610e55565b5b92915050565b5f819050919050565b610ec781610eb5565b82525050565b610ed681610a4c565b82525050565b5f73ffffffffffffffffffffffffffffffffffffffff82169050919050565b5f610f0582610edc565b9050919050565b610f1581610efb565b82525050565b5f60a082019050610f2e5f830188610ebe565b610f3b6020830187610ebe565b610f486040830186610ebe565b610f556060830185610ecd565b610f626080830184610f0c565b9695505050505050565b5f610f7682610b7f565b610f808185610b07565b9350610f908185602086016108ee565b610f9981610836565b840191505092915050565b5f6020820190508181035f830152610fbc8184610f6c565b905092915050565b5f81519050919050565b5f819050602082019050919050565b5f610fe88251610eb5565b80915050919050565b5f610ffb82610fc4565b8261100584610fce565b905061101081610fdd565b925060208210156110505761104b7fffffffffffffffffffffffffffffffffffffffffffffffffffffffffffffffff83602003600802610c07565b831692505b5050919050565b5f60ff82169050919050565b61106c81611057565b82525050565b7f4e487b71000000000000000000000000000000000000000000000000000000005f52602160045260245ffd5b602081106110b0576110af611072565b5b50565b5f8190506110c08261109f565b919050565b5f6110cf826110b3565b9050919050565b6110df816110c5565b82525050565b5f81519050919050565b5f82825260208201905092915050565b5f819050602082019050919050565b61111781610a4c565b82525050565b5f611128838361110e565b60208301905092915050565b5f602082019050919050565b5f61114a826110e5565b61115481856110ef565b935061115f836110ff565b805f5b8381101561118f578151611176888261111d565b975061118183611134565b925050600181019050611162565b5085935050505092915050565b5f6080820190506111af5f830187611063565b6111bc60208301866110d6565b81810360408301526111ce8185611140565b905081810360608301526111e28184611140565b905095945050505050565b5f6020828403121561120257611201610826565b5b5f61120f84828501610a6b565b91505092915050565b5f8160030b9050919050565b61122d81611218565b82525050565b5f6020820190506112465f830184611224565b92915050565b7f4e487b71000000000000000000000000000000000000000000000000000000005f52603260045260245ffd5b60805160a05160c05160e0516101005161012051610140516126206112ca5f395f61096301525f61092801525f61148c01525f61146b01525f610d2001525f610d7601525f610d9f01526126205ff3fe608060405234801561000f575f5ffd5b5060043610610086575f3560e01c806384b0196e1161005957806384b0196e14610112578063853a1b90146101365780639e6cb42b14610155578063bc11cb3f1461017357610086565b8063409e22051461008a5780634bb278f3146100ba5780635ad9fcca146100c4578063753ec103146100f4575b5f5ffd5b6100a4600480360381019061009f919061196c565b61018f565b6040516100b19190611a07565b60405180910390f35b6100c2610235565b005b6100de60048036038101906100d99190611bf7565b610342565b6040516100eb9190611c90565b60405180910390f35b6100fc6104ed565b6040516101099190611a07565b60405180910390f35b61011a610579565b60405161012d9796959493929190611dfe565b60405180910390f35b61013e61061e565b60405161014c929190611eb7565b60405180910390f35b61015d61066e565b60405161016a9190611ede565b60405180910390f35b61018d60048036038101906101889190611fb2565b610674565b005b6008818154811061019e575f80fd5b905f5260205f20015f9150905080546101b690612026565b80601f01602080910402602001604051908101604052809291908181526020018280546101e290612026565b801561022d5780601f106102045761010080835404028352916020019161022d565b820191905f5260205f20905b81548152906001019060200180831161021057829003601f168201915b505050505081565b4260095410610279576040517f08c379a0000000000000000000000000000000000000000000000000000000008152600401610270906120a0565b60405180910390fd5b60035f6004811061028d5761028c6120be565b5b0154600e81905550600a5f600481106102a9576102a86120be565b5b0154600f819055505f600190505b6008805490508160ff16101561033f575f6102ec600f54600a8460ff16600481106102e5576102e46120be565b5b01546107a7565b905061031e6102fd82600f546107f0565b60038460ff1660048110610314576103136120be565b5b0154600e54610839565b600e8190555080600f8190555050808061033790612118565b9150506102b7565b50565b606081335f61039b7f6bdaeb2d29561f159c7ef98b16b27015fb2aeb87209c7ee656226d912f59927d845f0151604051602001610380929190612140565b6040516020818303038152906040528051906020012061089b565b90505f6103ac8285602001516108b4565b90508273ffffffffffffffffffffffffffffffffffffffff168173ffffffffffffffffffffffffffffffffffffffff1614610413576040517f51c65eae00000000000000000000000000000000000000000000000000000000815260040160405180910390fd5b61045960105f3373ffffffffffffffffffffffffffffffffffffffff1673ffffffffffffffffffffffffffffffffffffffff1681526020019081526020015f20546108de565b610498576040517f08c379a000000000000000000000000000000000000000000000000000000000815260040161048f906121b1565b60405180910390fd5b6104e260105f3373ffffffffffffffffffffffffffffffffffffffff1673ffffffffffffffffffffffffffffffffffffffff1681526020019081526020015f2054875f01516108ef565b945050505050919050565b600780546104fa90612026565b80601f016020809104026020016040519081016040528092919081815260200182805461052690612026565b80156105715780601f1061054857610100808354040283529160200191610571565b820191905f5260205f20905b81548152906001019060200180831161055457829003601f168201915b505050505081565b5f6060805f5f5f606061058a610920565b61059261095a565b46305f5f1b5f67ffffffffffffffff8111156105b1576105b0611a2b565b5b6040519080825280602002602001820160405280156105df5781602001602082028036833780820191505090505b507f0f00000000000000000000000000000000000000000000000000000000000000959493929190965096509650965096509650965090919293949596565b5f5f4260095410610664576040517f08c379a000000000000000000000000000000000000000000000000000000000815260040161065b906120a0565b60405180910390fd5b5f5f915091509091565b60095481565b60095442106106b8576040517f08c379a00000000000000000000000000000000000000000000000000000000081526004016106af90612219565b60405180910390fd5b6106fe60105f3373ffffffffffffffffffffffffffffffffffffffff1673ffffffffffffffffffffffffffffffffffffffff1681526020019081526020015f20546108de565b1561073e576040517f08c379a000000000000000000000000000000000000000000000000000000000815260040161073590612281565b60405180910390fd5b5f61074882610995565b90505f61075482610a08565b90508160105f3373ffffffffffffffffffffffffffffffffffffffff1673ffffffffffffffffffffffffffffffffffffffff1681526020019081526020015f20819055506107a28282610a32565b505050565b5f6107b183610ad4565b6107c1576107be5f610ae5565b92505b6107ca82610ad4565b6107da576107d75f610ae5565b91505b6107e8600384846017610af7565b905092915050565b5f6107fa83610ad4565b61080a576108075f610ae5565b92505b61081382610ad4565b610823576108205f610ae5565b91505b610831600384846015610af7565b905092915050565b5f61084384610be6565b610853576108505f610bf7565b93505b61085c83610c09565b61086c576108695f610c1a565b92505b61087582610c09565b610885576108825f610c1a565b91505b6108926002858585610c2c565b90509392505050565b5f6108ad6108a7610d1d565b83610dd3565b9050919050565b5f5f5f5f6108c28686610e13565b9250925092506108d28282610e68565b82935050505092915050565b5f6108e882610c09565b9050919050565b60605f839050808360405160200161090892919061229f565b60405160208183030381529060405291505092915050565b60606109555f7f0000000000000000000000000000000000000000000000000000000000000000610fca90919063ffffffff16565b905090565b606061099060017f0000000000000000000000000000000000000000000000000000000000000000610fca90919063ffffffff16565b905090565b5f5f600290508060ff16836040015160ff16146109ef578260400151816040517f67cf30710000000000000000000000000000000000000000000000000000000081526004016109e69291906122c6565b60405180910390fd5b610a006109fb84611077565b6110b9565b915050919050565b5f610a2b82610a2660016004610a1e91906122ed565b60ff16610c1a565b611150565b9050919050565b5f5f90505b6008805490508160ff161015610acf575f610a73610a6d8560038560ff1660048110610a6657610a656120be565b5b0154611199565b846111e2565b9050610a9f600a8360ff1660048110610a8f57610a8e6120be565b5b0154610a9a8361122c565b61123f565b600a8360ff1660048110610ab657610ab56120be565b5b0181905550508080610ac790612118565b915050610a37565b505050565b5f610ade82611288565b9050919050565b5f610af0825f611294565b9050919050565b5f73020000000000000000000000000000000000008073ffffffffffffffffffffffffffffffffffffffff16631888debd8684610b3488886112ae565b5f67ffffffffffffffff811115610b4e57610b4d611a2b565b5b604051908082528060200260200182016040528015610b7c5781602001602082028036833780820191505090505b506040518563ffffffff1660e01b8152600401610b9c9493929190612394565b6020604051808303815f875af1158015610bb8573d5f5f3e3d5ffd5b505050506040513d601f19601f82011682018060405250810190610bdc91906123f9565b9050949350505050565b5f610bf082611288565b9050919050565b5f610c02825f611348565b9050919050565b5f610c1382611288565b9050919050565b5f610c25825f611371565b9050919050565b5f73020000000000000000000000000000000000008073ffffffffffffffffffffffffffffffffffffffff16631888debd866004610c6b88888861138b565b5f67ffffffffffffffff811115610c8557610c84611a2b565b5b604051908082528060200260200182016040528015610cb35781602001602082028036833780820191505090505b506040518563ffffffff1660e01b8152600401610cd39493929190612394565b6020604051808303815f875af1158015610cef573d5f5f3e3d5ffd5b505050506040513d601f19601f82011682018060405250810190610d1391906123f9565b9050949350505050565b5f7f000000000000000000000000000000000000000000000000000000000000000073ffffffffffffffffffffffffffffffffffffffff163073ffffffffffffffffffffffffffffffffffffffff16148015610d9857507f000000000000000000000000000000000000000000000000000000000000000046145b15610dc5577f00000000000000000000000000000000000000000000000000000000000000009050610dd0565b610dcd611447565b90505b90565b5f6040517f190100000000000000000000000000000000000000000000000000000000000081528360028201528260228201526042812091505092915050565b5f5f5f6041845103610e53575f5f5f602087015192506040870151915060608701515f1a9050610e45888285856114dc565b955095509550505050610e61565b5f600285515f1b9250925092505b9250925092565b5f6003811115610e7b57610e7a612321565b5b826003811115610e8e57610e8d612321565b5b0315610fc65760016003811115610ea857610ea7612321565b5b826003811115610ebb57610eba612321565b5b03610ef2576040517ff645eedf00000000000000000000000000000000000000000000000000000000815260040160405180910390fd5b60026003811115610f0657610f05612321565b5b826003811115610f1957610f18612321565b5b03610f5d57805f1c6040517ffce698f7000000000000000000000000000000000000000000000000000000008152600401610f549190611ede565b60405180910390fd5b600380811115610f7057610f6f612321565b5b826003811115610f8357610f82612321565b5b03610fc557806040517fd78bce0c000000000000000000000000000000000000000000000000000000008152600401610fbc9190612424565b60405180910390fd5b5b5050565b606060ff5f1b8314610fe657610fdf836115c3565b9050611071565b818054610ff290612026565b80601f016020809104026020016040519081016040528092919081815260200182805461101e90612026565b80156110695780601f1061104057610100808354040283529160200191611069565b820191905f5260205f20905b81548152906001019060200180831161104c57829003601f168201915b505050505090505b92915050565b61107f6118fd565b6040518060800160405280835f01518152602001836020015160ff168152602001600260ff16815260200183606001518152509050919050565b5f73020000000000000000000000000000000000008073ffffffffffffffffffffffffffffffffffffffff166327f9c76283336040518363ffffffff1660e01b81526004016111099291906124f4565b6020604051808303815f875af1158015611125573d5f5f3e3d5ffd5b505050506040513d601f19601f8201168201806040525081019061114991906123f9565b9050919050565b5f61115a83610c09565b61116a576111675f610c1a565b92505b61117382610c09565b611183576111805f610c1a565b91505b611191600284846013610af7565b905092915050565b5f6111a383610c09565b6111b3576111b05f610c1a565b92505b6111bc82610c09565b6111cc576111c95f610c1a565b91505b6111da600284846018610af7565b905092915050565b5f6111ec83610be6565b6111fd576111fa6001610bf7565b92505b61120682610be6565b611217576112146001610bf7565b91505b6112245f8484600a610af7565b905092915050565b5f611238826003611635565b9050919050565b5f61124983610ad4565b611259576112565f610ae5565b92505b61126282610ad4565b6112725761126f5f610ae5565b91505b611280600384846008610af7565b905092915050565b5f5f8214159050919050565b5f5f6112a2846003856116e5565b90508091505092915050565b60605f600267ffffffffffffffff8111156112cc576112cb611a2b565b5b6040519080825280602002602001820160405280156112fa5781602001602082028036833780820191505090505b50905083815f81518110611311576113106120be565b5b6020026020010181815250508281600181518110611332576113316120be565b5b6020026020010181815250508091505092915050565b5f5f5f9050831561135857600190505b5f611364825f866116e5565b9050809250505092915050565b5f5f61137f846002856116e5565b90508091505092915050565b60605f600367ffffffffffffffff8111156113a9576113a8611a2b565b5b6040519080825280602002602001820160405280156113d75781602001602082028036833780820191505090505b50905084815f815181106113ee576113ed6120be565b5b602002602001018181525050838160018151811061140f5761140e6120be565b5b60200260200101818152505082816002815181106114305761142f6120be565b5b602002602001018181525050809150509392505050565b5f7f8b73c3c69bb8fe3d512ecc4cf759cc79239f7b179b0ffacaa9a75d522b39400f7f00000000000000000000000000000000000000000000000000000000000000007f000000000000000000000000000000000000000000000000000000000000000046306040516020016114c1959493929190612522565b60405160208183030381529060405280519060200120905090565b5f5f5f7f7fffffffffffffffffffffffffffffff5d576e7357a4501ddfe92f46681b20a0845f1c1115611518575f6003859250925092506115b9565b5f6001888888886040515f815260200160405260405161153b9493929190612573565b6020604051602081039080840390855afa15801561155b573d5f5f3e3d5ffd5b5050506020604051035190505f73ffffffffffffffffffffffffffffffffffffffff168173ffffffffffffffffffffffffffffffffffffffff16036115ac575f60015f5f1b935093509350506115b9565b805f5f5f1b935093509350505b9450945094915050565b60605f6115cf836117e0565b90505f602067ffffffffffffffff8111156115ed576115ec611a2b565b5b6040519080825280601f01601f19166020018201604052801561161f5781602001600182028036833780820191505090505b5090508181528360208201528092505050919050565b5f73020000000000000000000000000000000000008073ffffffffffffffffffffffffffffffffffffffff16631888debd8360026116728761182e565b61167e8760ff1661182e565b6040518563ffffffff1660e01b815260040161169d9493929190612394565b6020604051808303815f875af11580156116b9573d5f5f3e3d5ffd5b505050506040513d601f19601f820116820180604052508101906116dd91906123f9565b905092915050565b5f73020000000000000000000000000000000000008073ffffffffffffffffffffffffffffffffffffffff16631888debd84601a5f67ffffffffffffffff81111561173357611732611a2b565b5b6040519080825280602002602001820160405280156117615781602001602082028036833780820191505090505b50611778898960ff166117738a6118a6565b61138b565b6040518563ffffffff1660e01b81526004016117979493929190612394565b6020604051808303815f875af11580156117b3573d5f5f3e3d5ffd5b505050506040513d601f19601f820116820180604052508101906117d791906123f9565b90509392505050565b5f5f60ff835f1c169050601f811115611825576040517fb3512b0c00000000000000000000000000000000000000000000000000000000815260040160405180910390fd5b80915050919050565b60605f600167ffffffffffffffff81111561184c5761184b611a2b565b5b60405190808252806020026020018201604052801561187a5781602001602082028036833780820191505090505b50905082815f81518110611891576118906120be565b5b60200260200101818152505080915050919050565b5f5f8260030b12156118ef57816040517f8f568bf80000000000000000000000000000000000000000000000000000000081526004016118e691906125d1565b60405180910390fd5b8163ffffffff169050919050565b60405180608001604052805f81526020015f60ff1681526020015f60ff168152602001606081525090565b5f604051905090565b5f5ffd5b5f5ffd5b5f819050919050565b61194b81611939565b8114611955575f5ffd5b50565b5f8135905061196681611942565b92915050565b5f6020828403121561198157611980611931565b5b5f61198e84828501611958565b91505092915050565b5f81519050919050565b5f82825260208201905092915050565b8281835e5f83830152505050565b5f601f19601f8301169050919050565b5f6119d982611997565b6119e381856119a1565b93506119f38185602086016119b1565b6119fc816119bf565b840191505092915050565b5f6020820190508181035f830152611a1f81846119cf565b905092915050565b5f5ffd5b7f4e487b71000000000000000000000000000000000000000000000000000000005f52604160045260245ffd5b611a61826119bf565b810181811067ffffffffffffffff82111715611a8057611a7f611a2b565b5b80604052505050565b5f611a92611928565b9050611a9e8282611a58565b919050565b5f5ffd5b5f819050919050565b611ab981611aa7565b8114611ac3575f5ffd5b50565b5f81359050611ad481611ab0565b92915050565b5f5ffd5b5f5ffd5b5f67ffffffffffffffff821115611afc57611afb611a2b565b5b611b05826119bf565b9050602081019050919050565b828183375f83830152505050565b5f611b32611b2d84611ae2565b611a89565b905082815260208101848484011115611b4e57611b4d611ade565b5b611b59848285611b12565b509392505050565b5f82601f830112611b7557611b74611ada565b5b8135611b85848260208601611b20565b91505092915050565b5f60408284031215611ba357611ba2611a27565b5b611bad6040611a89565b90505f611bbc84828501611ac6565b5f83015250602082013567ffffffffffffffff811115611bdf57611bde611aa3565b5b611beb84828501611b61565b60208301525092915050565b5f60208284031215611c0c57611c0b611931565b5b5f82013567ffffffffffffffff811115611c2957611c28611935565b5b611c3584828501611b8e565b91505092915050565b5f81519050919050565b5f82825260208201905092915050565b5f611c6282611c3e565b611c6c8185611c48565b9350611c7c8185602086016119b1565b611c85816119bf565b840191505092915050565b5f6020820190508181035f830152611ca88184611c58565b905092915050565b5f7fff0000000000000000000000000000000000000000000000000000000000000082169050919050565b611ce481611cb0565b82525050565b611cf381611939565b82525050565b5f73ffffffffffffffffffffffffffffffffffffffff82169050919050565b5f611d2282611cf9565b9050919050565b611d3281611d18565b82525050565b611d4181611aa7565b82525050565b5f81519050919050565b5f82825260208201905092915050565b5f819050602082019050919050565b611d7981611939565b82525050565b5f611d8a8383611d70565b60208301905092915050565b5f602082019050919050565b5f611dac82611d47565b611db68185611d51565b9350611dc183611d61565b805f5b83811015611df1578151611dd88882611d7f565b9750611de383611d96565b925050600181019050611dc4565b5085935050505092915050565b5f60e082019050611e115f83018a611cdb565b8181036020830152611e2381896119cf565b90508181036040830152611e3781886119cf565b9050611e466060830187611cea565b611e536080830186611d29565b611e6060a0830185611d38565b81810360c0830152611e728184611da2565b905098975050505050505050565b5f60ff82169050919050565b611e9581611e80565b82525050565b5f61ffff82169050919050565b611eb181611e9b565b82525050565b5f604082019050611eca5f830185611e8c565b611ed76020830184611ea8565b9392505050565b5f602082019050611ef15f830184611cea565b92915050565b611f0081611e80565b8114611f0a575f5ffd5b50565b5f81359050611f1b81611ef7565b92915050565b5f60808284031215611f3657611f35611a27565b5b611f406080611a89565b90505f611f4f84828501611958565b5f830152506020611f6284828501611f0d565b6020830152506040611f7684828501611f0d565b604083015250606082013567ffffffffffffffff811115611f9a57611f99611aa3565b5b611fa684828501611b61565b60608301525092915050565b5f60208284031215611fc757611fc6611931565b5b5f82013567ffffffffffffffff811115611fe457611fe3611935565b5b611ff084828501611f21565b91505092915050565b7f4e487b71000000000000000000000000000000000000000000000000000000005f52602260045260245ffd5b5f600282049050600182168061203d57607f821691505b6020821081036120505761204f611ff9565b5b50919050565b7f766f74696e67206973207374696c6c20696e2070726f677265737321000000005f82015250565b5f61208a601c836119a1565b915061209582612056565b602082019050919050565b5f6020820190508181035f8301526120b78161207e565b9050919050565b7f4e487b71000000000000000000000000000000000000000000000000000000005f52603260045260245ffd5b7f4e487b71000000000000000000000000000000000000000000000000000000005f52601160045260245ffd5b5f61212282611e80565b915060ff8203612135576121346120eb565b5b600182019050919050565b5f6040820190506121535f830185611d38565b6121606020830184611d38565b9392505050565b7f6e6f20766f746520666f756e64210000000000000000000000000000000000005f82015250565b5f61219b600e836119a1565b91506121a682612167565b602082019050919050565b5f6020820190508181035f8301526121c88161218f565b9050919050565b7f766f74696e67206973206f7665722100000000000000000000000000000000005f82015250565b5f612203600f836119a1565b915061220e826121cf565b602082019050919050565b5f6020820190508181035f830152612230816121f7565b9050919050565b7f616c726561647920766f746564210000000000000000000000000000000000005f82015250565b5f61226b600e836119a1565b915061227682612237565b602082019050919050565b5f6020820190508181035f8301526122988161225f565b9050919050565b5f6040820190506122b25f830185611cea565b6122bf6020830184611d38565b9392505050565b5f6040820190506122d95f830185611e8c565b6122e66020830184611e8c565b9392505050565b5f6122f782611e80565b915061230283611e80565b9250828203905060ff81111561231b5761231a6120eb565b5b92915050565b7f4e487b71000000000000000000000000000000000000000000000000000000005f52602160045260245ffd5b6020811061235f5761235e612321565b5b50565b5f81905061236f8261234e565b919050565b5f61237e82612362565b9050919050565b61238e81612374565b82525050565b5f6080820190506123a75f830187611e8c565b6123b46020830186612385565b81810360408301526123c68185611da2565b905081810360608301526123da8184611da2565b905095945050505050565b5f815190506123f381611942565b92915050565b5f6020828403121561240e5761240d611931565b5b5f61241b848285016123e5565b91505092915050565b5f6020820190506124375f830184611d38565b92915050565b61244681611e80565b82525050565b5f82825260208201905092915050565b5f61246682611c3e565b612470818561244c565b93506124808185602086016119b1565b612489816119bf565b840191505092915050565b5f608083015f8301516124a95f860182611d70565b5060208301516124bc602086018261243d565b5060408301516124cf604086018261243d565b50606083015184820360608601526124e7828261245c565b9150508091505092915050565b5f6040820190508181035f83015261250c8185612494565b905061251b6020830184611d29565b9392505050565b5f60a0820190506125355f830188611d38565b6125426020830187611d38565b61254f6040830186611d38565b61255c6060830185611cea565b6125696080830184611d29565b9695505050505050565b5f6080820190506125865f830187611d38565b6125936020830186611e8c565b6125a06040830185611d38565b6125ad6060830184611d38565b95945050505050565b5f8160030b9050919050565b6125cb816125b6565b82525050565b5f6020820190506125e45f8301846125c2565b9291505056fea2646970667358221220ce9d2263346ce627adc09bf4f5d7ae1f81e80cc977442e3f5703a4f900bb5e0664736f6c634300081b0033","linkReferences":{}},"methodIdentifiers":{"eip712Domain()":"84b0196e","finalize()":"4bb278f3","getUserVote((bytes32,bytes))":"5ad9fcca","options(uint256)":"409e2205","proposal()":"753ec103","vote((uint256,uint8,uint8,bytes))":"bc11cb3f","voteEndTime()":"9e6cb42b","winning()":"853a1b90"},"id":6}