{"abi":[{"type":"constructor","inputs":[{"name":"wluxfhe","type":"address","internalType":"address"},{"name":"biddingTime","type":"uint256","internalType":"uint256"}],"stateMutability":"payable"},{"type":"function","name":"auctionEndTime","inputs":[],"outputs":[{"name":"","type":"uint256","internalType":"uint256"}],"stateMutability":"view"},{"type":"function","name":"auctioneer","inputs":[],"outputs":[{"name":"","type":"address","internalType":"address payable"}],"stateMutability":"view"},{"type":"function","name":"bid","inputs":[{"name":"amount","type":"tuple","internalType":"struct Euint32","components":[{"name":"ctHash","type":"uint256","internalType":"uint256"},{"name":"securityZone","type":"uint8","internalType":"uint8"},{"name":"utype","type":"uint8","internalType":"uint8"},{"name":"signature","type":"bytes","internalType":"bytes"}]}],"outputs":[],"stateMutability":"nonpayable"},{"type":"function","name":"debugEndAuction","inputs":[],"outputs":[],"stateMutability":"nonpayable"},{"type":"function","name":"endAuction","inputs":[],"outputs":[],"stateMutability":"nonpayable"},{"type":"function","name":"getWinner","inputs":[],"outputs":[{"name":"","type":"address","internalType":"address"}],"stateMutability":"view"},{"type":"function","name":"getWinningBid","inputs":[],"outputs":[{"name":"","type":"uint256","internalType":"uint256"}],"stateMutability":"view"},{"type":"function","name":"redeemFunds","inputs":[],"outputs":[],"stateMutability":"nonpayable"},{"type":"function","name":"winnerAddress","inputs":[],"outputs":[{"name":"","type":"address","internalType":"address"}],"stateMutability":"view"},{"type":"event","name":"AuctionEnded","inputs":[{"name":"winner","type":"address","indexed":false,"internalType":"address"},{"name":"bid","type":"uint32","indexed":false,"internalType":"uint32"}],"anonymous":false},{"type":"error","name":"SecurityZoneOutOfBounds","inputs":[{"name":"value","type":"int32","internalType":"int32"}]}],"bytecode":{"object":"0x60806040526040516129423803806129428339818101604052810190610025919061042f565b8160105f6101000a81548173ffffffffffffffffffffffffffffffffffffffff021916908373ffffffffffffffffffffffffffffffffffffffff160217905550335f5f6101000a81548173ffffffffffffffffffffffffffffffffffffffff021916908373ffffffffffffffffffffffffffffffffffffffff16021790555080426100b0919061049a565b600f819055506100c55f61014c60201b60201c565b6002819055506002546003819055505f5f90505b600581101561012b5760025460045f0182600581106100fb576100fa6104cd565b5b018190555060025460095f018260058110610119576101186104cd565b5b018190555080806001019150506100d9565b5061013f63ffffffff61014c60201b60201c565b600e81905550505061071c565b5f61015d825f61016460201b60201c565b9050919050565b5f5f6101788460048561018460201b60201c565b90508091505092915050565b5f73020000000000000000000000000000000000008073ffffffffffffffffffffffffffffffffffffffff16631888debd84601a5f67ffffffffffffffff8111156101d2576101d16104fa565b5b6040519080825280602002602001820160405280156102005781602001602082028036833780820191505090505b50610223898960ff166102188a61028b60201b60201c565b6102e260201b60201c565b6040518563ffffffff1660e01b8152600401610242949392919061066c565b6020604051808303815f875af115801561025e573d5f5f3e3d5ffd5b505050506040513d601f19601f8201168201806040525081019061028291906106bd565b90509392505050565b5f5f8260030b12156102d457816040517f8f568bf80000000000000000000000000000000000000000000000000000000081526004016102cb9190610703565b60405180910390fd5b8163ffffffff169050919050565b60605f600367ffffffffffffffff811115610300576102ff6104fa565b5b60405190808252806020026020018201604052801561032e5781602001602082028036833780820191505090505b50905084815f81518110610345576103446104cd565b5b6020026020010181815250508381600181518110610366576103656104cd565b5b6020026020010181815250508281600281518110610387576103866104cd565b5b602002602001018181525050809150509392505050565b5f5ffd5b5f73ffffffffffffffffffffffffffffffffffffffff82169050919050565b5f6103cb826103a2565b9050919050565b6103db816103c1565b81146103e5575f5ffd5b50565b5f815190506103f6816103d2565b92915050565b5f819050919050565b61040e816103fc565b8114610418575f5ffd5b50565b5f8151905061042981610405565b92915050565b5f5f604083850312156104455761044461039e565b5b5f610452858286016103e8565b92505060206104638582860161041b565b9150509250929050565b7f4e487b71000000000000000000000000000000000000000000000000000000005f52601160045260245ffd5b5f6104a4826103fc565b91506104af836103fc565b92508282019050808211156104c7576104c661046d565b5b92915050565b7f4e487b71000000000000000000000000000000000000000000000000000000005f52603260045260245ffd5b7f4e487b71000000000000000000000000000000000000000000000000000000005f52604160045260245ffd5b5f60ff82169050919050565b61053c81610527565b82525050565b7f4e487b71000000000000000000000000000000000000000000000000000000005f52602160045260245ffd5b602081106105805761057f610542565b5b50565b5f8190506105908261056f565b919050565b5f61059f82610583565b9050919050565b6105af81610595565b82525050565b5f81519050919050565b5f82825260208201905092915050565b5f819050602082019050919050565b6105e7816103fc565b82525050565b5f6105f883836105de565b60208301905092915050565b5f602082019050919050565b5f61061a826105b5565b61062481856105bf565b935061062f836105cf565b805f5b8381101561065f57815161064688826105ed565b975061065183610604565b925050600181019050610632565b5085935050505092915050565b5f60808201905061067f5f830187610533565b61068c60208301866105a6565b818103604083015261069e8185610610565b905081810360608301526106b28184610610565b905095945050505050565b5f602082840312156106d2576106d161039e565b5b5f6106df8482850161041b565b91505092915050565b5f8160030b9050919050565b6106fd816106e8565b82525050565b5f6020820190506107165f8301846106f4565b92915050565b612219806107295f395ff3fe608060405234801561000f575f5ffd5b5060043610610091575f3560e01c80638e7ea5b2116100645780638e7ea5b2146100f757806394ce0e2014610115578063e6cd064b1461011f578063ed7a4e0b1461013d578063fe67a54b1461015b57610091565b8063216355ec146100955780634b449cba1461009f57806354646fea146100bd5780635ec2c7bf146100d9575b5f5ffd5b61009d610165565b005b6100a761044a565b6040516100b49190611813565b60405180910390f35b6100d760048036038101906100d29190611856565b610450565b005b6100e1610645565b6040516100ee91906118dc565b60405180910390f35b6100ff610669565b60405161010c9190611915565b60405180910390f35b61011d610720565b005b610127610931565b6040516101349190611813565b60405180910390f35b6101456109c7565b6040516101529190611915565b60405180910390f35b6101636109ec565b005b60115f9054906101000a900473ffffffffffffffffffffffffffffffffffffffff1673ffffffffffffffffffffffffffffffffffffffff163373ffffffffffffffffffffffffffffffffffffffff16036101f4576040517f08c379a00000000000000000000000000000000000000000000000000000000081526004016101eb906119ae565b60405180910390fd5b5f73ffffffffffffffffffffffffffffffffffffffff1660115f9054906101000a900473ffffffffffffffffffffffffffffffffffffffff1673ffffffffffffffffffffffffffffffffffffffff1603610283576040517f08c379a000000000000000000000000000000000000000000000000000000000815260040161027a90611a16565b60405180910390fd5b60015f3373ffffffffffffffffffffffffffffffffffffffff1673ffffffffffffffffffffffffffffffffffffffff1681526020019081526020015f206001015f9054906101000a900460ff1615610310576040517f08c379a000000000000000000000000000000000000000000000000000000000815260040161030790611a7e565b60405180910390fd5b5f60015f3373ffffffffffffffffffffffffffffffffffffffff1673ffffffffffffffffffffffffffffffffffffffff1681526020019081526020015f205f015490506001805f3373ffffffffffffffffffffffffffffffffffffffff1673ffffffffffffffffffffffffffffffffffffffff1681526020019081526020015f206001015f6101000a81548160ff02191690831515021790555060105f9054906101000a900473ffffffffffffffffffffffffffffffffffffffff1673ffffffffffffffffffffffffffffffffffffffff1663c4224c1933836040518363ffffffff1660e01b8152600401610406929190611ad5565b6020604051808303815f875af1158015610422573d5f5f3e3d5ffd5b505050506040513d601f19601f820116820180604052508101906104469190611b26565b5050565b600f5481565b5f73ffffffffffffffffffffffffffffffffffffffff1660115f9054906101000a900473ffffffffffffffffffffffffffffffffffffffff1673ffffffffffffffffffffffffffffffffffffffff16146104df576040517f08c379a00000000000000000000000000000000000000000000000000000000081526004016104d690611a16565b60405180910390fd5b5f60105f9054906101000a900473ffffffffffffffffffffffffffffffffffffffff1673ffffffffffffffffffffffffffffffffffffffff1663e1a136d53330856040518463ffffffff1660e01b815260040161053e93929190611d45565b6020604051808303815f875af115801561055a573d5f5f3e3d5ffd5b505050506040513d601f19601f8201168201806040525081019061057e9190611b26565b90505f61058b3383610c42565b90505f61059a82600354610e9e565b90505f6105a633610ee7565b90505f6105be60035484610fef90919063ffffffff16565b905061061b8160096040518060200160405290815f820160058060200260405190810160405280929190826005801561060c576020028201915b8154815260200190600101908083116105f8575b50505050508152505084611002565b60095f820151815f0190600561063292919061174b565b5090505082600381905550505050505050565b5f5f9054906101000a900473ffffffffffffffffffffffffffffffffffffffff1681565b5f5f73ffffffffffffffffffffffffffffffffffffffff1660115f9054906101000a900473ffffffffffffffffffffffffffffffffffffffff1673ffffffffffffffffffffffffffffffffffffffff16036106f9576040517f08c379a00000000000000000000000000000000000000000000000000000000081526004016106f090611a16565b60405180910390fd5b60115f9054906101000a900473ffffffffffffffffffffffffffffffffffffffff16905090565b5f5f9054906101000a900473ffffffffffffffffffffffffffffffffffffffff1673ffffffffffffffffffffffffffffffffffffffff163373ffffffffffffffffffffffffffffffffffffffff16146107ae576040517f08c379a00000000000000000000000000000000000000000000000000000000081526004016107a590611df1565b60405180910390fd5b5f73ffffffffffffffffffffffffffffffffffffffff1660115f9054906101000a900473ffffffffffffffffffffffffffffffffffffffff1673ffffffffffffffffffffffffffffffffffffffff161461083d576040517f08c379a000000000000000000000000000000000000000000000000000000000815260040161083490611a16565b60405180910390fd5b61089660096040518060200160405290815f8201600580602002604051908101604052809291908260058015610888576020028201915b815481526020019060010190808311610874575b50505050508152505061108e565b60115f6101000a81548173ffffffffffffffffffffffffffffffffffffffff021916908373ffffffffffffffffffffffffffffffffffffffff1602179055507f1c73b0ec6aabb0e49a3005f5ff668188d68c7c2c5fabe4686ec117562b51828160115f9054906101000a900473ffffffffffffffffffffffffffffffffffffffff165f604051610927929190611e57565b60405180910390a1565b5f5f73ffffffffffffffffffffffffffffffffffffffff1660115f9054906101000a900473ffffffffffffffffffffffffffffffffffffffff1673ffffffffffffffffffffffffffffffffffffffff16036109c1576040517f08c379a00000000000000000000000000000000000000000000000000000000081526004016109b890611a16565b60405180910390fd5b5f905090565b60115f9054906101000a900473ffffffffffffffffffffffffffffffffffffffff1681565b5f5f9054906101000a900473ffffffffffffffffffffffffffffffffffffffff1673ffffffffffffffffffffffffffffffffffffffff163373ffffffffffffffffffffffffffffffffffffffff1614610a7a576040517f08c379a0000000000000000000000000000000000000000000000000000000008152600401610a7190611df1565b60405180910390fd5b600f54421015610abf576040517f08c379a0000000000000000000000000000000000000000000000000000000008152600401610ab690611ec8565b60405180910390fd5b5f73ffffffffffffffffffffffffffffffffffffffff1660115f9054906101000a900473ffffffffffffffffffffffffffffffffffffffff1673ffffffffffffffffffffffffffffffffffffffff1614610b4e576040517f08c379a0000000000000000000000000000000000000000000000000000000008152600401610b4590611a16565b60405180910390fd5b610ba760096040518060200160405290815f8201600580602002604051908101604052809291908260058015610b99576020028201915b815481526020019060010190808311610b85575b50505050508152505061108e565b60115f6101000a81548173ffffffffffffffffffffffffffffffffffffffff021916908373ffffffffffffffffffffffffffffffffffffffff1602179055507f1c73b0ec6aabb0e49a3005f5ff668188d68c7c2c5fabe4686ec117562b51828160115f9054906101000a900473ffffffffffffffffffffffffffffffffffffffff165f604051610c38929190611e57565b60405180910390a1565b5f610c8b60015f8573ffffffffffffffffffffffffffffffffffffffff1673ffffffffffffffffffffffffffffffffffffffff1681526020019081526020015f205f0154611097565b610d6057610c9761178b565b82815f0181815250505f8160200190151590811515815250508060015f8673ffffffffffffffffffffffffffffffffffffffff1673ffffffffffffffffffffffffffffffffffffffff1681526020019081526020015f205f820151815f01556020820151816001015f6101000a81548160ff02191690831515021790555090505060015f8573ffffffffffffffffffffffffffffffffffffffff1673ffffffffffffffffffffffffffffffffffffffff1681526020019081526020015f205f0154915050610e98565b5f610db5610d70600e54856110a8565b60015f8773ffffffffffffffffffffffffffffffffffffffff1673ffffffffffffffffffffffffffffffffffffffff1681526020019081526020015f205f01546110f1565b90505f610dc5826002548661113a565b9050610e1060015f8773ffffffffffffffffffffffffffffffffffffffff1673ffffffffffffffffffffffffffffffffffffffff1681526020019081526020015f205f01548261119c565b60015f8773ffffffffffffffffffffffffffffffffffffffff1673ffffffffffffffffffffffffffffffffffffffff1681526020019081526020015f205f018190555060015f8673ffffffffffffffffffffffffffffffffffffffff1673ffffffffffffffffffffffffffffffffffffffff1681526020019081526020015f205f0154925050505b92915050565b5f610ea8836111e5565b610eb857610eb55f6111f6565b92505b610ec1826111e5565b610ed157610ece5f6111f6565b91505b610edf600484846017611208565b905092915050565b610eef6117a5565b5f8290505f73ffffffff000000000000000000000000000000009050610f136117a5565b5f5f90505b6005811015610fe3575f602082610f2f9190611f13565b90505f8173ffffffffffffffffffffffffffffffffffffffff168573ffffffffffffffffffffffffffffffffffffffff16901c90505f826080610f729190611f54565b73ffffffffffffffffffffffffffffffffffffffff1682881673ffffffffffffffffffffffffffffffffffffffff16901c9050610fb48163ffffffff166111f6565b855f01518560058110610fca57610fc9611f9b565b5b6020020181815250505050508080600101915050610f18565b50809350505050919050565b5f610ffa83836112f7565b905092915050565b61100a6117a5565b5f5f90505b60058110156110835761105785845f0151836005811061103257611031611f9b565b5b6020020151865f0151846005811061104d5761104c611f9b565b5b602002015161113a565b845f0151826005811061106d5761106c611f9b565b5b602002018181525050808060010191505061100f565b508290509392505050565b5f5f9050919050565b5f6110a1826111e5565b9050919050565b5f6110b2836111e5565b6110c2576110bf5f6111f6565b92505b6110cb826111e5565b6110db576110d85f6111f6565b91505b6110e9600484846007611208565b905092915050565b5f6110fb836111e5565b61110b576111085f6111f6565b92505b611114826111e5565b611124576111215f6111f6565b91505b611132600484846014611208565b905092915050565b5f61114484611340565b611154576111515f611351565b93505b61115d836111e5565b61116d5761116a5f6111f6565b92505b611176826111e5565b611186576111835f6111f6565b91505b6111936004858585611363565b90509392505050565b5f6111a6836111e5565b6111b6576111b35f6111f6565b92505b6111bf826111e5565b6111cf576111cc5f6111f6565b91505b6111dd600484846008611208565b905092915050565b5f6111ef82611454565b9050919050565b5f611201825f611460565b9050919050565b5f73020000000000000000000000000000000000008073ffffffffffffffffffffffffffffffffffffffff16631888debd8684611245888861147a565b5f67ffffffffffffffff81111561125f5761125e611fc8565b5b60405190808252806020026020018201604052801561128d5781602001602082028036833780820191505090505b506040518563ffffffff1660e01b81526004016112ad949392919061211f565b6020604051808303815f875af11580156112c9573d5f5f3e3d5ffd5b505050506040513d601f19601f820116820180604052508101906112ed9190612184565b9050949350505050565b5f611301836111e5565b6113115761130e5f6111f6565b92505b61131a826111e5565b61132a576113275f6111f6565b91505b611338600484846015611208565b905092915050565b5f61134a82611454565b9050919050565b5f61135c825f611514565b9050919050565b5f73020000000000000000000000000000000000008073ffffffffffffffffffffffffffffffffffffffff16631888debd8660046113a288888861153d565b5f67ffffffffffffffff8111156113bc576113bb611fc8565b5b6040519080825280602002602001820160405280156113ea5781602001602082028036833780820191505090505b506040518563ffffffff1660e01b815260040161140a949392919061211f565b6020604051808303815f875af1158015611426573d5f5f3e3d5ffd5b505050506040513d601f19601f8201168201806040525081019061144a9190612184565b9050949350505050565b5f5f8214159050919050565b5f5f61146e846004856115f9565b90508091505092915050565b60605f600267ffffffffffffffff81111561149857611497611fc8565b5b6040519080825280602002602001820160405280156114c65781602001602082028036833780820191505090505b50905083815f815181106114dd576114dc611f9b565b5b60200260200101818152505082816001815181106114fe576114fd611f9b565b5b6020026020010181815250508091505092915050565b5f5f5f9050831561152457600190505b5f611530825f866115f9565b9050809250505092915050565b60605f600367ffffffffffffffff81111561155b5761155a611fc8565b5b6040519080825280602002602001820160405280156115895781602001602082028036833780820191505090505b50905084815f815181106115a05761159f611f9b565b5b60200260200101818152505083816001815181106115c1576115c0611f9b565b5b60200260200101818152505082816002815181106115e2576115e1611f9b565b5b602002602001018181525050809150509392505050565b5f73020000000000000000000000000000000000008073ffffffffffffffffffffffffffffffffffffffff16631888debd84601a5f67ffffffffffffffff81111561164757611646611fc8565b5b6040519080825280602002602001820160405280156116755781602001602082028036833780820191505090505b5061168c898960ff166116878a6116f4565b61153d565b6040518563ffffffff1660e01b81526004016116ab949392919061211f565b6020604051808303815f875af11580156116c7573d5f5f3e3d5ffd5b505050506040513d601f19601f820116820180604052508101906116eb9190612184565b90509392505050565b5f5f8260030b121561173d57816040517f8f568bf800000000000000000000000000000000000000000000000000000000815260040161173491906121ca565b60405180910390fd5b8163ffffffff169050919050565b826005810192821561177a579160200282015b8281111561177957825182559160200191906001019061175e565b5b50905061178791906117be565b5090565b60405180604001604052805f81526020015f151581525090565b60405180602001604052806117b86117d9565b81525090565b5b808211156117d5575f815f9055506001016117bf565b5090565b6040518060a00160405280600590602082028036833780820191505090505090565b5f819050919050565b61180d816117fb565b82525050565b5f6020820190506118265f830184611804565b92915050565b5f5ffd5b5f5ffd5b5f5ffd5b5f6080828403121561184d5761184c611834565b5b81905092915050565b5f6020828403121561186b5761186a61182c565b5b5f82013567ffffffffffffffff81111561188857611887611830565b5b61189484828501611838565b91505092915050565b5f73ffffffffffffffffffffffffffffffffffffffff82169050919050565b5f6118c68261189d565b9050919050565b6118d6816118bc565b82525050565b5f6020820190506118ef5f8301846118cd565b92915050565b5f6118ff8261189d565b9050919050565b61190f816118f5565b82525050565b5f6020820190506119285f830184611906565b92915050565b5f82825260208201905092915050565b7f57696e6e65722063616e6e6f7420706572666f726d207468697320616374696f5f8201527f6e00000000000000000000000000000000000000000000000000000000000000602082015250565b5f61199860218361192e565b91506119a38261193e565b604082019050919050565b5f6020820190508181035f8301526119c58161198c565b9050919050565b7f41756374696f6e20616c726561647920656e64656400000000000000000000005f82015250565b5f611a0060158361192e565b9150611a0b826119cc565b602082019050919050565b5f6020820190508181035f830152611a2d816119f4565b9050919050565b7f416c726561647920726566756e646564000000000000000000000000000000005f82015250565b5f611a6860108361192e565b9150611a7382611a34565b602082019050919050565b5f6020820190508181035f830152611a9581611a5c565b9050919050565b5f819050919050565b5f611abf611aba611ab5846117fb565b611a9c565b6117fb565b9050919050565b611acf81611aa5565b82525050565b5f604082019050611ae85f830185611906565b611af56020830184611ac6565b9392505050565b611b05816117fb565b8114611b0f575f5ffd5b50565b5f81519050611b2081611afc565b92915050565b5f60208284031215611b3b57611b3a61182c565b5b5f611b4884828501611b12565b91505092915050565b611b5a816117fb565b8114611b64575f5ffd5b50565b5f81359050611b7581611b51565b92915050565b5f611b896020840184611b67565b905092915050565b611b9a816117fb565b82525050565b5f60ff82169050919050565b611bb581611ba0565b8114611bbf575f5ffd5b50565b5f81359050611bd081611bac565b92915050565b5f611be46020840184611bc2565b905092915050565b611bf581611ba0565b82525050565b5f5ffd5b5f5ffd5b5f5ffd5b5f5f83356001602003843603038112611c2357611c22611c03565b5b83810192508235915060208301925067ffffffffffffffff821115611c4b57611c4a611bfb565b5b600182023603831315611c6157611c60611bff565b5b509250929050565b5f82825260208201905092915050565b828183375f83830152505050565b5f601f19601f8301169050919050565b5f611ca28385611c69565b9350611caf838584611c79565b611cb883611c87565b840190509392505050565b5f60808301611cd45f840184611b7b565b611ce05f860182611b91565b50611cee6020840184611bd6565b611cfb6020860182611bec565b50611d096040840184611bd6565b611d166040860182611bec565b50611d246060840184611c07565b8583036060870152611d37838284611c97565b925050508091505092915050565b5f606082019050611d585f830186611906565b611d656020830185611906565b8181036040830152611d778184611cc3565b9050949350505050565b7f4f6e6c792061756374696f6e6565722063616e20706572666f726d20746869735f8201527f20616374696f6e00000000000000000000000000000000000000000000000000602082015250565b5f611ddb60278361192e565b9150611de682611d81565b604082019050919050565b5f6020820190508181035f830152611e0881611dcf565b9050919050565b5f819050919050565b5f63ffffffff82169050919050565b5f611e41611e3c611e3784611e0f565b611a9c565b611e18565b9050919050565b611e5181611e27565b82525050565b5f604082019050611e6a5f830185611906565b611e776020830184611e48565b9392505050565b7f41756374696f6e206f6e676f696e6700000000000000000000000000000000005f82015250565b5f611eb2600f8361192e565b9150611ebd82611e7e565b602082019050919050565b5f6020820190508181035f830152611edf81611ea6565b9050919050565b7f4e487b71000000000000000000000000000000000000000000000000000000005f52601160045260245ffd5b5f611f1d826117fb565b9150611f28836117fb565b9250828202611f36816117fb565b91508282048414831517611f4d57611f4c611ee6565b5b5092915050565b5f611f5e8261189d565b9150611f698361189d565b9250828203905073ffffffffffffffffffffffffffffffffffffffff811115611f9557611f94611ee6565b5b92915050565b7f4e487b71000000000000000000000000000000000000000000000000000000005f52603260045260245ffd5b7f4e487b71000000000000000000000000000000000000000000000000000000005f52604160045260245ffd5b611ffe81611ba0565b82525050565b7f4e487b71000000000000000000000000000000000000000000000000000000005f52602160045260245ffd5b6020811061204257612041612004565b5b50565b5f81905061205282612031565b919050565b5f61206182612045565b9050919050565b61207181612057565b82525050565b5f81519050919050565b5f82825260208201905092915050565b5f819050602082019050919050565b5f6120ab8383611b91565b60208301905092915050565b5f602082019050919050565b5f6120cd82612077565b6120d78185612081565b93506120e283612091565b805f5b838110156121125781516120f988826120a0565b9750612104836120b7565b9250506001810190506120e5565b5085935050505092915050565b5f6080820190506121325f830187611ff5565b61213f6020830186612068565b818103604083015261215181856120c3565b9050818103606083015261216581846120c3565b905095945050505050565b5f8151905061217e81611b51565b92915050565b5f602082840312156121995761219861182c565b5b5f6121a684828501612170565b91505092915050565b5f8160030b9050919050565b6121c4816121af565b82525050565b5f6020820190506121dd5f8301846121bb565b9291505056fea2646970667358221220ba26aa85c6917140996f9d89c1130fcea360eb84bd976f612531ae4c8a8c88be64736f6c634300081b0033","linkReferences":{}},"methodIdentifiers":{"auctionEndTime()":"4b449cba","auctioneer()":"5ec2c7bf","bid((uint256,uint8,uint8,bytes))":"54646fea","debugEndAuction()":"94ce0e20","endAuction()":"fe67a54b","getWinner()":"8e7ea5b2","getWinningBid()":"e6cd064b","redeemFunds()":"216355ec","winnerAddress()":"ed7a4e0b"},"id":0}