{"abi":[{"type":"constructor","inputs":[{"name":"name","type":"string","internalType":"string"},{"name":"symbol","type":"string","internalType":"string"},{"name":"initialBalance","type":"uint256","internalType":"uint256"},{"name":"encryptedBalance","type":"tuple","internalType":"struct Euint32","components":[{"name":"ctHash","type":"uint256","internalType":"uint256"},{"name":"securityZone","type":"uint8","internalType":"uint8"},{"name":"utype","type":"uint8","internalType":"uint8"},{"name":"signature","type":"bytes","internalType":"bytes"}]}],"stateMutability":"nonpayable"},{"type":"function","name":"DEFAULT_ADMIN_ROLE","inputs":[],"outputs":[{"name":"","type":"bytes32","internalType":"bytes32"}],"stateMutability":"view"},{"type":"function","name":"MINTER_ROLE","inputs":[],"outputs":[{"name":"","type":"bytes32","internalType":"bytes32"}],"stateMutability":"view"},{"type":"function","name":"_allowanceEncrypted","inputs":[{"name":"owner","type":"address","internalType":"address"},{"name":"spender","type":"address","internalType":"address"}],"outputs":[{"name":"","type":"uint256","internalType":"euint32"}],"stateMutability":"view"},{"type":"function","name":"allowance","inputs":[{"name":"owner","type":"address","internalType":"address"},{"name":"spender","type":"address","internalType":"address"}],"outputs":[{"name":"","type":"uint256","internalType":"uint256"}],"stateMutability":"view"},{"type":"function","name":"allowanceEncrypted","inputs":[{"name":"spender","type":"address","internalType":"address"},{"name":"permission","type":"tuple","internalType":"struct Permission","components":[{"name":"publicKey","type":"bytes32","internalType":"bytes32"},{"name":"signature","type":"bytes","internalType":"bytes"}]}],"outputs":[{"name":"","type":"bytes","internalType":"bytes"}],"stateMutability":"view"},{"type":"function","name":"approve","inputs":[{"name":"spender","type":"address","internalType":"address"},{"name":"value","type":"uint256","internalType":"uint256"}],"outputs":[{"name":"","type":"bool","internalType":"bool"}],"stateMutability":"nonpayable"},{"type":"function","name":"approveEncrypted","inputs":[{"name":"spender","type":"address","internalType":"address"},{"name":"value","type":"tuple","internalType":"struct Euint32","components":[{"name":"ctHash","type":"uint256","internalType":"uint256"},{"name":"securityZone","type":"uint8","internalType":"uint8"},{"name":"utype","type":"uint8","internalType":"uint8"},{"name":"signature","type":"bytes","internalType":"bytes"}]}],"outputs":[{"name":"","type":"bool","internalType":"bool"}],"stateMutability":"nonpayable"},{"type":"function","name":"balanceOf","inputs":[{"name":"account","type":"address","internalType":"address"}],"outputs":[{"name":"","type":"uint256","internalType":"uint256"}],"stateMutability":"view"},{"type":"function","name":"balanceOfEncrypted","inputs":[{"name":"account","type":"address","internalType":"address"},{"name":"auth","type":"tuple","internalType":"struct Permission","components":[{"name":"publicKey","type":"bytes32","internalType":"bytes32"},{"name":"signature","type":"bytes","internalType":"bytes"}]}],"outputs":[{"name":"","type":"bytes","internalType":"bytes"}],"stateMutability":"view"},{"type":"function","name":"decimals","inputs":[],"outputs":[{"name":"","type":"uint8","internalType":"uint8"}],"stateMutability":"view"},{"type":"function","name":"eip712Domain","inputs":[],"outputs":[{"name":"fields","type":"bytes1","internalType":"bytes1"},{"name":"name","type":"string","internalType":"string"},{"name":"version","type":"string","internalType":"string"},{"name":"chainId","type":"uint256","internalType":"uint256"},{"name":"verifyingContract","type":"address","internalType":"address"},{"name":"salt","type":"bytes32","internalType":"bytes32"},{"name":"extensions","type":"uint256[]","internalType":"uint256[]"}],"stateMutability":"view"},{"type":"function","name":"getRoleAdmin","inputs":[{"name":"role","type":"bytes32","internalType":"bytes32"}],"outputs":[{"name":"","type":"bytes32","internalType":"bytes32"}],"stateMutability":"view"},{"type":"function","name":"grantRole","inputs":[{"name":"role","type":"bytes32","internalType":"bytes32"},{"name":"account","type":"address","internalType":"address"}],"outputs":[],"stateMutability":"nonpayable"},{"type":"function","name":"hasRole","inputs":[{"name":"role","type":"bytes32","internalType":"bytes32"},{"name":"account","type":"address","internalType":"address"}],"outputs":[{"name":"","type":"bool","internalType":"bool"}],"stateMutability":"view"},{"type":"function","name":"mint","inputs":[{"name":"amount","type":"uint256","internalType":"uint256"}],"outputs":[],"stateMutability":"nonpayable"},{"type":"function","name":"mintEncrypted","inputs":[{"name":"recipient","type":"address","internalType":"address"},{"name":"amount","type":"tuple","internalType":"struct Euint32","components":[{"name":"ctHash","type":"uint256","internalType":"uint256"},{"name":"securityZone","type":"uint8","internalType":"uint8"},{"name":"utype","type":"uint8","internalType":"uint8"},{"name":"signature","type":"bytes","internalType":"bytes"}]}],"outputs":[],"stateMutability":"nonpayable"},{"type":"function","name":"mintEncrypted","inputs":[{"name":"encryptedAmount","type":"tuple","internalType":"struct Euint32","components":[{"name":"ctHash","type":"uint256","internalType":"uint256"},{"name":"securityZone","type":"uint8","internalType":"uint8"},{"name":"utype","type":"uint8","internalType":"uint8"},{"name":"signature","type":"bytes","internalType":"bytes"}]}],"outputs":[],"stateMutability":"nonpayable"},{"type":"function","name":"name","inputs":[],"outputs":[{"name":"","type":"string","internalType":"string"}],"stateMutability":"view"},{"type":"function","name":"renounceRole","inputs":[{"name":"role","type":"bytes32","internalType":"bytes32"},{"name":"callerConfirmation","type":"address","internalType":"address"}],"outputs":[],"stateMutability":"nonpayable"},{"type":"function","name":"revokeRole","inputs":[{"name":"role","type":"bytes32","internalType":"bytes32"},{"name":"account","type":"address","internalType":"address"}],"outputs":[],"stateMutability":"nonpayable"},{"type":"function","name":"supportsInterface","inputs":[{"name":"interfaceId","type":"bytes4","internalType":"bytes4"}],"outputs":[{"name":"","type":"bool","internalType":"bool"}],"stateMutability":"view"},{"type":"function","name":"symbol","inputs":[],"outputs":[{"name":"","type":"string","internalType":"string"}],"stateMutability":"view"},{"type":"function","name":"totalSupply","inputs":[],"outputs":[{"name":"","type":"uint256","internalType":"uint256"}],"stateMutability":"view"},{"type":"function","name":"transfer","inputs":[{"name":"to","type":"address","internalType":"address"},{"name":"value","type":"uint256","internalType":"uint256"}],"outputs":[{"name":"","type":"bool","internalType":"bool"}],"stateMutability":"nonpayable"},{"type":"function","name":"transferEncrypted","inputs":[{"name":"to","type":"address","internalType":"address"},{"name":"amount","type":"uint256","internalType":"euint32"}],"outputs":[{"name":"","type":"uint256","internalType":"euint32"}],"stateMutability":"nonpayable"},{"type":"function","name":"transferEncrypted","inputs":[{"name":"to","type":"address","internalType":"address"},{"name":"encryptedAmount","type":"tuple","internalType":"struct Euint32","components":[{"name":"ctHash","type":"uint256","internalType":"uint256"},{"name":"securityZone","type":"uint8","internalType":"uint8"},{"name":"utype","type":"uint8","internalType":"uint8"},{"name":"signature","type":"bytes","internalType":"bytes"}]}],"outputs":[{"name":"","type":"uint256","internalType":"euint32"}],"stateMutability":"nonpayable"},{"type":"function","name":"transferFrom","inputs":[{"name":"from","type":"address","internalType":"address"},{"name":"to","type":"address","internalType":"address"},{"name":"value","type":"uint256","internalType":"uint256"}],"outputs":[{"name":"","type":"bool","internalType":"bool"}],"stateMutability":"nonpayable"},{"type":"function","name":"transferFromEncrypted","inputs":[{"name":"from","type":"address","internalType":"address"},{"name":"to","type":"address","internalType":"address"},{"name":"value","type":"uint256","internalType":"euint32"}],"outputs":[{"name":"","type":"uint256","internalType":"euint32"}],"stateMutability":"nonpayable"},{"type":"function","name":"transferFromEncrypted","inputs":[{"name":"from","type":"address","internalType":"address"},{"name":"to","type":"address","internalType":"address"},{"name":"value","type":"tuple","internalType":"struct Euint32","components":[{"name":"ctHash","type":"uint256","internalType":"uint256"},{"name":"securityZone","type":"uint8","internalType":"uint8"},{"name":"utype","type":"uint8","internalType":"uint8"},{"name":"signature","type":"bytes","internalType":"bytes"}]}],"outputs":[{"name":"","type":"uint256","internalType":"euint32"}],"stateMutability":"nonpayable"},{"type":"function","name":"unwrap","inputs":[{"name":"amount","type":"uint32","internalType":"uint32"}],"outputs":[],"stateMutability":"nonpayable"},{"type":"function","name":"wrap","inputs":[{"name":"amount","type":"uint32","internalType":"uint32"}],"outputs":[],"stateMutability":"nonpayable"},{"type":"event","name":"Approval","inputs":[{"name":"owner","type":"address","indexed":true,"internalType":"address"},{"name":"spender","type":"address","indexed":true,"internalType":"address"},{"name":"value","type":"uint256","indexed":false,"internalType":"uint256"}],"anonymous":false},{"type":"event","name":"ApprovalEncrypted","inputs":[{"name":"owner","type":"address","indexed":true,"internalType":"address"},{"name":"spender","type":"address","indexed":true,"internalType":"address"}],"anonymous":false},{"type":"event","name":"EIP712DomainChanged","inputs":[],"anonymous":false},{"type":"event","name":"RoleAdminChanged","inputs":[{"name":"role","type":"bytes32","indexed":true,"internalType":"bytes32"},{"name":"previousAdminRole","type":"bytes32","indexed":true,"internalType":"bytes32"},{"name":"newAdminRole","type":"bytes32","indexed":true,"internalType":"bytes32"}],"anonymous":false},{"type":"event","name":"RoleGranted","inputs":[{"name":"role","type":"bytes32","indexed":true,"internalType":"bytes32"},{"name":"account","type":"address","indexed":true,"internalType":"address"},{"name":"sender","type":"address","indexed":true,"internalType":"address"}],"anonymous":false},{"type":"event","name":"RoleRevoked","inputs":[{"name":"role","type":"bytes32","indexed":true,"internalType":"bytes32"},{"name":"account","type":"address","indexed":true,"internalType":"address"},{"name":"sender","type":"address","indexed":true,"internalType":"address"}],"anonymous":false},{"type":"event","name":"Transfer","inputs":[{"name":"from","type":"address","indexed":true,"internalType":"address"},{"name":"to","type":"address","indexed":true,"internalType":"address"},{"name":"value","type":"uint256","indexed":false,"internalType":"uint256"}],"anonymous":false},{"type":"event","name":"TransferEncrypted","inputs":[{"name":"from","type":"address","indexed":true,"internalType":"address"},{"name":"to","type":"address","indexed":true,"internalType":"address"}],"anonymous":false},{"type":"error","name":"AccessControlBadConfirmation","inputs":[]},{"type":"error","name":"AccessControlUnauthorizedAccount","inputs":[{"name":"account","type":"address","internalType":"address"},{"name":"neededRole","type":"bytes32","internalType":"bytes32"}]},{"type":"error","name":"ECDSAInvalidSignature","inputs":[]},{"type":"error","name":"ECDSAInvalidSignatureLength","inputs":[{"name":"length","type":"uint256","internalType":"uint256"}]},{"type":"error","name":"ECDSAInvalidSignatureS","inputs":[{"name":"s","type":"bytes32","internalType":"bytes32"}]},{"type":"error","name":"ERC20InsufficientAllowance","inputs":[{"name":"spender","type":"address","internalType":"address"},{"name":"allowance","type":"uint256","internalType":"uint256"},{"name":"needed","type":"uint256","internalType":"uint256"}]},{"type":"error","name":"ERC20InsufficientBalance","inputs":[{"name":"sender","type":"address","internalType":"address"},{"name":"balance","type":"uint256","internalType":"uint256"},{"name":"needed","type":"uint256","internalType":"uint256"}]},{"type":"error","name":"ERC20InvalidApprover","inputs":[{"name":"approver","type":"address","internalType":"address"}]},{"type":"error","name":"ERC20InvalidReceiver","inputs":[{"name":"receiver","type":"address","internalType":"address"}]},{"type":"error","name":"ERC20InvalidSender","inputs":[{"name":"sender","type":"address","internalType":"address"}]},{"type":"error","name":"ERC20InvalidSpender","inputs":[{"name":"spender","type":"address","internalType":"address"}]},{"type":"error","name":"ErrorInsufficientFunds","inputs":[]},{"type":"error","name":"InvalidEncryptedInput","inputs":[{"name":"got","type":"uint8","internalType":"uint8"},{"name":"expected","type":"uint8","internalType":"uint8"}]},{"type":"error","name":"InvalidShortString","inputs":[]},{"type":"error","name":"SecurityZoneOutOfBounds","inputs":[{"name":"value","type":"int32","internalType":"int32"}]},{"type":"error","name":"SignerNotMessageSender","inputs":[]},{"type":"error","name":"SignerNotOwner","inputs":[]},{"type":"error","name":"StringTooLong","inputs":[{"name":"str","type":"string","internalType":"string"}]}],"bytecode":{"object":"0x6101606040526100145f6101dc60201b60201c565b600955348015610022575f5ffd5b5060405161585f38038061585f83398181016040528101906100449190611088565b83836040518060400160405280601181526020017f4c7578464845205065726d697373696f6e0000000000000000000000000000008152506040518060400160405280600381526020017f312e300000000000000000000000000000000000000000000000000000000000815250838381600390816100c39190611347565b5080600490816100d39190611347565b5050506100ea6005836101f460201b90919060201c565b61012081815250506101066006826101f460201b90919060201c565b6101408181525050818051906020012060e08181525050808051906020012061010081815250504660a0818152505061014361024160201b60201c565b608081815250503073ffffffffffffffffffffffffffffffffffffffff1660c08173ffffffffffffffffffffffffffffffffffffffff168152505050505050610192338361029b60201b60201c565b6101a2338261032060201b60201c565b6101d27f9f2df0fed2c77648de5860a4cc508cd0818c85b8b8a1ab4ceeef8d981c8956a6336103dd60201b60201c565b50505050506119b1565b5f6101ed825f6104d360201b60201c565b9050919050565b5f6020835110156102155761020e836104f360201b60201c565b905061023b565b826102258361055860201b60201c565b5f0190816102339190611347565b5060ff5f1b90505b92915050565b5f7f8b73c3c69bb8fe3d512ecc4cf759cc79239f7b179b0ffacaa9a75d522b39400f60e05161010051463060405160200161028095949392919061147c565b60405160208183030381529060405280519060200120905090565b5f73ffffffffffffffffffffffffffffffffffffffff168273ffffffffffffffffffffffffffffffffffffffff160361030b575f6040517fec442f0500000000000000000000000000000000000000000000000000000000815260040161030291906114cd565b60405180910390fd5b61031c5f838361056160201b60201c565b5050565b5f6103308261077a60201b60201c565b905061037f60075f8573ffffffffffffffffffffffffffffffffffffffff1673ffffffffffffffffffffffffffffffffffffffff1681526020019081526020015f2054826107f960201b60201c565b60075f8573ffffffffffffffffffffffffffffffffffffffff1673ffffffffffffffffffffffffffffffffffffffff1681526020019081526020015f20819055506103d2600954826107f960201b60201c565b600981905550505050565b5f6103ee838361086060201b60201c565b6104c9576001600a5f8581526020019081526020015f205f015f8473ffffffffffffffffffffffffffffffffffffffff1673ffffffffffffffffffffffffffffffffffffffff1681526020019081526020015f205f6101000a81548160ff0219169083151502179055506104666108c460201b60201c565b73ffffffffffffffffffffffffffffffffffffffff168273ffffffffffffffffffffffffffffffffffffffff16847f2f8788117e7eff1d82e926ec794901d17c78024a50270940304540a733656f0d60405160405180910390a4600190506104cd565b5f90505b92915050565b5f5f6104e7846004856108cb60201b60201c565b90508091505092915050565b5f5f829050601f8151111561053f57826040517f305a27a9000000000000000000000000000000000000000000000000000000008152600401610536919061152e565b60405180910390fd5b80518161054b9061157b565b5f1c175f1b915050919050565b5f819050919050565b5f73ffffffffffffffffffffffffffffffffffffffff168373ffffffffffffffffffffffffffffffffffffffff16036105b1578060025f8282546105a5919061160e565b9250508190555061067f565b5f5f5f8573ffffffffffffffffffffffffffffffffffffffff1673ffffffffffffffffffffffffffffffffffffffff1681526020019081526020015f205490508181101561063a578381836040517fe450d38c00000000000000000000000000000000000000000000000000000000815260040161063193929190611641565b60405180910390fd5b8181035f5f8673ffffffffffffffffffffffffffffffffffffffff1673ffffffffffffffffffffffffffffffffffffffff1681526020019081526020015f2081905550505b5f73ffffffffffffffffffffffffffffffffffffffff168273ffffffffffffffffffffffffffffffffffffffff16036106c6578060025f8282540392505081905550610710565b805f5f8473ffffffffffffffffffffffffffffffffffffffff1673ffffffffffffffffffffffffffffffffffffffff1681526020019081526020015f205f82825401925050819055505b8173ffffffffffffffffffffffffffffffffffffffff168373ffffffffffffffffffffffffffffffffffffffff167fddf252ad1be2c89b69c2b068fc378daa952ba7f163c4a11628f55a4df523b3ef8360405161076d9190611676565b60405180910390a3505050565b5f5f600490508060ff16836040015160ff16146107d4578260400151816040517f67cf30710000000000000000000000000000000000000000000000000000000081526004016107cb92919061169e565b60405180910390fd5b6107f16107e6846109d260201b60201c565b610a1460201b60201c565b915050919050565b5f61080983610aab60201b60201c565b61081f5761081c5f6101dc60201b60201c565b92505b61082e82610aab60201b60201c565b610844576108415f6101dc60201b60201c565b91505b610858600484846008610ac260201b60201c565b905092915050565b5f600a5f8481526020019081526020015f205f015f8373ffffffffffffffffffffffffffffffffffffffff1673ffffffffffffffffffffffffffffffffffffffff1681526020019081526020015f205f9054906101000a900460ff16905092915050565b5f33905090565b5f73020000000000000000000000000000000000008073ffffffffffffffffffffffffffffffffffffffff16631888debd84601a5f67ffffffffffffffff81111561091957610918610dc4565b5b6040519080825280602002602001820160405280156109475781602001602082028036833780820191505090505b5061096a898960ff1661095f8a610bb760201b60201c565b610c0e60201b60201c565b6040518563ffffffff1660e01b815260040161098994939291906117ef565b6020604051808303815f875af11580156109a5573d5f5f3e3d5ffd5b505050506040513d601f19601f820116820180604052508101906109c99190611840565b90509392505050565b6109da610d70565b6040518060800160405280835f01518152602001836020015160ff168152602001600460ff16815260200183606001518152509050919050565b5f73020000000000000000000000000000000000008073ffffffffffffffffffffffffffffffffffffffff166327f9c76283336040518363ffffffff1660e01b8152600401610a64929190611922565b6020604051808303815f875af1158015610a80573d5f5f3e3d5ffd5b505050506040513d601f19601f82011682018060405250810190610aa49190611840565b9050919050565b5f610abb82610cca60201b60201c565b9050919050565b5f73020000000000000000000000000000000000008073ffffffffffffffffffffffffffffffffffffffff16631888debd8684610b058888610cd660201b60201c565b5f67ffffffffffffffff811115610b1f57610b1e610dc4565b5b604051908082528060200260200182016040528015610b4d5781602001602082028036833780820191505090505b506040518563ffffffff1660e01b8152600401610b6d94939291906117ef565b6020604051808303815f875af1158015610b89573d5f5f3e3d5ffd5b505050506040513d601f19601f82011682018060405250810190610bad9190611840565b9050949350505050565b5f5f8260030b1215610c0057816040517f8f568bf8000000000000000000000000000000000000000000000000000000008152600401610bf7919061196b565b60405180910390fd5b8163ffffffff169050919050565b60605f600367ffffffffffffffff811115610c2c57610c2b610dc4565b5b604051908082528060200260200182016040528015610c5a5781602001602082028036833780820191505090505b50905084815f81518110610c7157610c70611984565b5b6020026020010181815250508381600181518110610c9257610c91611984565b5b6020026020010181815250508281600281518110610cb357610cb2611984565b5b602002602001018181525050809150509392505050565b5f5f8214159050919050565b60605f600267ffffffffffffffff811115610cf457610cf3610dc4565b5b604051908082528060200260200182016040528015610d225781602001602082028036833780820191505090505b50905083815f81518110610d3957610d38611984565b5b6020026020010181815250508281600181518110610d5a57610d59611984565b5b6020026020010181815250508091505092915050565b60405180608001604052805f81526020015f60ff1681526020015f60ff168152602001606081525090565b5f604051905090565b5f5ffd5b5f5ffd5b5f5ffd5b5f5ffd5b5f601f19601f8301169050919050565b7f4e487b71000000000000000000000000000000000000000000000000000000005f52604160045260245ffd5b610dfa82610db4565b810181811067ffffffffffffffff82111715610e1957610e18610dc4565b5b80604052505050565b5f610e2b610d9b565b9050610e378282610df1565b919050565b5f67ffffffffffffffff821115610e5657610e55610dc4565b5b610e5f82610db4565b9050602081019050919050565b8281835e5f83830152505050565b5f610e8c610e8784610e3c565b610e22565b905082815260208101848484011115610ea857610ea7610db0565b5b610eb3848285610e6c565b509392505050565b5f82601f830112610ecf57610ece610dac565b5b8151610edf848260208601610e7a565b91505092915050565b5f819050919050565b610efa81610ee8565b8114610f04575f5ffd5b50565b5f81519050610f1581610ef1565b92915050565b5f5ffd5b5f5ffd5b5f60ff82169050919050565b610f3881610f23565b8114610f42575f5ffd5b50565b5f81519050610f5381610f2f565b92915050565b5f67ffffffffffffffff821115610f7357610f72610dc4565b5b610f7c82610db4565b9050602081019050919050565b5f610f9b610f9684610f59565b610e22565b905082815260208101848484011115610fb757610fb6610db0565b5b610fc2848285610e6c565b509392505050565b5f82601f830112610fde57610fdd610dac565b5b8151610fee848260208601610f89565b91505092915050565b5f6080828403121561100c5761100b610f1b565b5b6110166080610e22565b90505f61102584828501610f07565b5f83015250602061103884828501610f45565b602083015250604061104c84828501610f45565b604083015250606082015167ffffffffffffffff8111156110705761106f610f1f565b5b61107c84828501610fca565b60608301525092915050565b5f5f5f5f608085870312156110a05761109f610da4565b5b5f85015167ffffffffffffffff8111156110bd576110bc610da8565b5b6110c987828801610ebb565b945050602085015167ffffffffffffffff8111156110ea576110e9610da8565b5b6110f687828801610ebb565b935050604061110787828801610f07565b925050606085015167ffffffffffffffff81111561112857611127610da8565b5b61113487828801610ff7565b91505092959194509250565b5f81519050919050565b7f4e487b71000000000000000000000000000000000000000000000000000000005f52602260045260245ffd5b5f600282049050600182168061118e57607f821691505b6020821081036111a1576111a061114a565b5b50919050565b5f819050815f5260205f209050919050565b5f6020601f8301049050919050565b5f82821b905092915050565b5f600883026112037fffffffffffffffffffffffffffffffffffffffffffffffffffffffffffffffff826111c8565b61120d86836111c8565b95508019841693508086168417925050509392505050565b5f819050919050565b5f61124861124361123e84610ee8565b611225565b610ee8565b9050919050565b5f819050919050565b6112618361122e565b61127561126d8261124f565b8484546111d4565b825550505050565b5f5f905090565b61128c61127d565b611297818484611258565b505050565b5b818110156112ba576112af5f82611284565b60018101905061129d565b5050565b601f8211156112ff576112d0816111a7565b6112d9846111b9565b810160208510156112e8578190505b6112fc6112f4856111b9565b83018261129c565b50505b505050565b5f82821c905092915050565b5f61131f5f1984600802611304565b1980831691505092915050565b5f6113378383611310565b9150826002028217905092915050565b61135082611140565b67ffffffffffffffff81111561136957611368610dc4565b5b6113738254611177565b61137e8282856112be565b5f60209050601f8311600181146113af575f841561139d578287015190505b6113a7858261132c565b86555061140e565b601f1984166113bd866111a7565b5f5b828110156113e4578489015182556001820191506020850194506020810190506113bf565b8683101561140157848901516113fd601f891682611310565b8355505b6001600288020188555050505b505050505050565b5f819050919050565b61142881611416565b82525050565b61143781610ee8565b82525050565b5f73ffffffffffffffffffffffffffffffffffffffff82169050919050565b5f6114668261143d565b9050919050565b6114768161145c565b82525050565b5f60a08201905061148f5f83018861141f565b61149c602083018761141f565b6114a9604083018661141f565b6114b6606083018561142e565b6114c3608083018461146d565b9695505050505050565b5f6020820190506114e05f83018461146d565b92915050565b5f82825260208201905092915050565b5f61150082611140565b61150a81856114e6565b935061151a818560208601610e6c565b61152381610db4565b840191505092915050565b5f6020820190508181035f83015261154681846114f6565b905092915050565b5f81519050919050565b5f819050602082019050919050565b5f6115728251611416565b80915050919050565b5f6115858261154e565b8261158f84611558565b905061159a81611567565b925060208210156115da576115d57fffffffffffffffffffffffffffffffffffffffffffffffffffffffffffffffff836020036008026111c8565b831692505b5050919050565b7f4e487b71000000000000000000000000000000000000000000000000000000005f52601160045260245ffd5b5f61161882610ee8565b915061162383610ee8565b925082820190508082111561163b5761163a6115e1565b5b92915050565b5f6060820190506116545f83018661146d565b611661602083018561142e565b61166e604083018461142e565b949350505050565b5f6020820190506116895f83018461142e565b92915050565b61169881610f23565b82525050565b5f6040820190506116b15f83018561168f565b6116be602083018461168f565b9392505050565b7f4e487b71000000000000000000000000000000000000000000000000000000005f52602160045260245ffd5b60208110611703576117026116c5565b5b50565b5f819050611713826116f2565b919050565b5f61172282611706565b9050919050565b61173281611718565b82525050565b5f81519050919050565b5f82825260208201905092915050565b5f819050602082019050919050565b61176a81610ee8565b82525050565b5f61177b8383611761565b60208301905092915050565b5f602082019050919050565b5f61179d82611738565b6117a78185611742565b93506117b283611752565b805f5b838110156117e25781516117c98882611770565b97506117d483611787565b9250506001810190506117b5565b5085935050505092915050565b5f6080820190506118025f83018761168f565b61180f6020830186611729565b81810360408301526118218185611793565b905081810360608301526118358184611793565b905095945050505050565b5f6020828403121561185557611854610da4565b5b5f61186284828501610f07565b91505092915050565b61187481610f23565b82525050565b5f82825260208201905092915050565b5f6118948261154e565b61189e818561187a565b93506118ae818560208601610e6c565b6118b781610db4565b840191505092915050565b5f608083015f8301516118d75f860182611761565b5060208301516118ea602086018261186b565b5060408301516118fd604086018261186b565b5060608301518482036060860152611915828261188a565b9150508091505092915050565b5f6040820190508181035f83015261193a81856118c2565b9050611949602083018461146d565b9392505050565b5f8160030b9050919050565b61196581611950565b82525050565b5f60208201905061197e5f83018461195c565b92915050565b7f4e487b71000000000000000000000000000000000000000000000000000000005f52603260045260245ffd5b60805160a05160c05160e051610100516101205161014051613e5d611a025f395f611a2a01525f6119ef01525f61284801525f61282701525f61211301525f61216901525f6121920152613e5d5ff3fe608060405234801561000f575f5ffd5b50600436106101e3575f3560e01c80636e0505e11161010d578063a9059cbb116100a0578063d547741f1161006f578063d547741f146105f3578063dd62ed3e1461060f578063e1a136d51461063f578063fe229cbe1461066f576101e3565b8063a9059cbb14610545578063af575a0014610575578063c4224c19146105a5578063d5391393146105d5576101e3565b806395d89b41116100dc57806395d89b41146104d15780639f284be7146104ef578063a0712d681461050b578063a217fddf14610527576101e3565b80636e0505e11461043157806370a082311461044d57806384b0196e1461047d57806391d14854146104a1576101e3565b80632f2ff15d116101855780635b6c6b3e116101545780635b6c6b3e146103995780635fd006b1146103b557806360277204146103d157806363c05a3314610401576101e3565b80632f2ff15d14610313578063313ce5671461032f57806336568abe1461034d5780635356c42914610369576101e3565b806318160ddd116101c157806318160ddd1461026557806323b872dd1461028357806323db9354146102b3578063248a9ca3146102e3576101e3565b806301ffc9a7146101e757806306fdde0314610217578063095ea7b314610235575b5f5ffd5b61020160048036038101906101fc9190612dad565b61069f565b60405161020e9190612df2565b60405180910390f35b61021f610718565b60405161022c9190612e7b565b60405180910390f35b61024f600480360381019061024a9190612f28565b6107a8565b60405161025c9190612df2565b60405180910390f35b61026d6107ca565b60405161027a9190612f75565b60405180910390f35b61029d60048036038101906102989190612f8e565b6107d3565b6040516102aa9190612df2565b60405180910390f35b6102cd60048036038101906102c89190612fde565b610801565b6040516102da9190613055565b60405180910390f35b6102fd60048036038101906102f891906130a1565b610883565b60405161030a91906130db565b60405180910390f35b61032d600480360381019061032891906130f4565b6108a0565b005b6103376108c2565b604051610344919061314d565b60405180910390f35b610367600480360381019061036291906130f4565b6108ca565b005b610383600480360381019061037e9190613188565b610945565b6040516103909190613234565b60405180910390f35b6103b360048036038101906103ae9190613443565b610a3f565b005b6103cf60048036038101906103ca91906134bb565b610a7d565b005b6103eb60048036038101906103e6919061356b565b610a93565b6040516103f89190613234565b60405180910390f35b61041b600480360381019061041691906135c5565b610bba565b6040516104289190612df2565b60405180910390f35b61044b60048036038101906104469190613658565b610be1565b005b61046760048036038101906104629190613683565b610cfe565b6040516104749190612f75565b60405180910390f35b610485610d43565b60405161049897969594939291906137ae565b60405180910390f35b6104bb60048036038101906104b691906130f4565b610de8565b6040516104c89190612df2565b60405180910390f35b6104d9610e4c565b6040516104e69190612e7b565b60405180910390f35b61050960048036038101906105049190613658565b610edc565b005b61052560048036038101906105209190613830565b610fe4565b005b61052f610ff1565b60405161053c91906130db565b60405180910390f35b61055f600480360381019061055a9190612f28565b610ff7565b60405161056c9190612df2565b60405180910390f35b61058f600480360381019061058a9190613885565b611019565b60405161059c9190613055565b60405180910390f35b6105bf60048036038101906105ba91906138d5565b611044565b6040516105cc9190613055565b60405180910390f35b6105dd611058565b6040516105ea91906130db565b60405180910390f35b61060d600480360381019061060891906130f4565b61107c565b005b61062960048036038101906106249190612fde565b61109e565b6040516106369190612f75565b60405180910390f35b61065960048036038101906106549190613913565b611120565b6040516106669190613055565b60405180910390f35b610689600480360381019061068491906135c5565b61115c565b6040516106969190613055565b60405180910390f35b5f7f7965db0b000000000000000000000000000000000000000000000000000000007bffffffffffffffffffffffffffffffffffffffffffffffffffffffff1916827bffffffffffffffffffffffffffffffffffffffffffffffffffffffff19161480610711575061071082611180565b5b9050919050565b606060038054610727906139ac565b80601f0160208091040260200160405190810160405280929190818152602001828054610753906139ac565b801561079e5780601f106107755761010080835404028352916020019161079e565b820191905f5260205f20905b81548152906001019060200180831161078157829003601f168201915b5050505050905090565b5f5f6107b26111e9565b90506107bf8185856111f0565b600191505092915050565b5f600254905090565b5f5f6107dd6111e9565b90506107ea858285611202565b6107f5858585611295565b60019150509392505050565b5f60085f8473ffffffffffffffffffffffffffffffffffffffff1673ffffffffffffffffffffffffffffffffffffffff1681526020019081526020015f205f8373ffffffffffffffffffffffffffffffffffffffff1673ffffffffffffffffffffffffffffffffffffffff1681526020019081526020015f2054905092915050565b5f600a5f8381526020019081526020015f20600101549050919050565b6108a982610883565b6108b281611385565b6108bc8383611399565b50505050565b5f6012905090565b6108d26111e9565b73ffffffffffffffffffffffffffffffffffffffff168173ffffffffffffffffffffffffffffffffffffffff1614610936576040517f6697b23200000000000000000000000000000000000000000000000000000000815260040160405180910390fd5b6109408282611483565b505050565b606081610951906139dc565b5f6109a67f6bdaeb2d29561f159c7ef98b16b27015fb2aeb87209c7ee656226d912f59927d835f015160405160200161098b9291906139ee565b6040516020818303038152906040528051906020012061156d565b90505f6109b7828460200151611586565b90503373ffffffffffffffffffffffffffffffffffffffff168173ffffffffffffffffffffffffffffffffffffffff1614610a1e576040517f3093a27700000000000000000000000000000000000000000000000000000000815260040160405180910390fd5b610a34610a2b3388610801565b865f01356115b0565b935050505092915050565b610a697f9f2df0fed2c77648de5860a4cc508cd0818c85b8b8a1ab4ceeef8d981c8956a633610de8565b15610a7957610a7882826115e1565b5b5050565b610a903382610a8b90613a15565b6115e1565b50565b606081835f610aec7f6bdaeb2d29561f159c7ef98b16b27015fb2aeb87209c7ee656226d912f59927d845f0151604051602001610ad19291906139ee565b6040516020818303038152906040528051906020012061156d565b90505f610afd828560200151611586565b90508273ffffffffffffffffffffffffffffffffffffffff168173ffffffffffffffffffffffffffffffffffffffff1614610b64576040517f51c65eae00000000000000000000000000000000000000000000000000000000815260040160405180910390fd5b610bae60075f3373ffffffffffffffffffffffffffffffffffffffff1673ffffffffffffffffffffffffffffffffffffffff1681526020019081526020015f2054875f01516115b0565b94505050505092915050565b5f610bd73384610bd285610bcd90613a15565b61168c565b6116ff565b6001905092915050565b5f610bf18263ffffffff16611861565b90505f610c4d610c3e60075f3373ffffffffffffffffffffffffffffffffffffffff1673ffffffffffffffffffffffffffffffffffffffff1681526020019081526020015f205484611873565b610c475f611861565b846118bc565b9050610c9660075f3373ffffffffffffffffffffffffffffffffffffffff1673ffffffffffffffffffffffffffffffffffffffff1681526020019081526020015f20548261191e565b60075f3373ffffffffffffffffffffffffffffffffffffffff1673ffffffffffffffffffffffffffffffffffffffff1681526020019081526020015f2081905550610ce36009548261191e565b600981905550610cf9338463ffffffff16611967565b505050565b5f5f5f8373ffffffffffffffffffffffffffffffffffffffff1673ffffffffffffffffffffffffffffffffffffffff1681526020019081526020015f20549050919050565b5f6060805f5f5f6060610d546119e6565b610d5c611a21565b46305f5f1b5f67ffffffffffffffff811115610d7b57610d7a613258565b5b604051908082528060200260200182016040528015610da95781602001602082028036833780820191505090505b507f0f00000000000000000000000000000000000000000000000000000000000000959493929190965096509650965096509650965090919293949596565b5f600a5f8481526020019081526020015f205f015f8373ffffffffffffffffffffffffffffffffffffffff1673ffffffffffffffffffffffffffffffffffffffff1681526020019081526020015f205f9054906101000a900460ff16905092915050565b606060048054610e5b906139ac565b80601f0160208091040260200160405190810160405280929190818152602001828054610e87906139ac565b8015610ed25780601f10610ea957610100808354040283529160200191610ed2565b820191905f5260205f20905b815481529060010190602001808311610eb557829003601f168201915b5050505050905090565b8063ffffffff16610eec33610cfe565b1015610f24576040517ffda7bbda00000000000000000000000000000000000000000000000000000000815260040160405180910390fd5b610f34338263ffffffff16611a5c565b5f610f448263ffffffff16611861565b9050610f8d60075f3373ffffffffffffffffffffffffffffffffffffffff1673ffffffffffffffffffffffffffffffffffffffff1681526020019081526020015f205482611adb565b60075f3373ffffffffffffffffffffffffffffffffffffffff1673ffffffffffffffffffffffffffffffffffffffff1681526020019081526020015f2081905550610fda60095482611adb565b6009819055505050565b610fee3382611967565b50565b5f5f1b81565b5f5f6110016111e9565b905061100e818585611295565b600191505092915050565b5f5f8290505f61102a863384611b24565b9050611037868683611b5f565b5080925050509392505050565b5f611050338484611b5f565b905092915050565b7f9f2df0fed2c77648de5860a4cc508cd0818c85b8b8a1ab4ceeef8d981c8956a681565b61108582610883565b61108e81611385565b6110988383611483565b50505050565b5f60015f8473ffffffffffffffffffffffffffffffffffffffff1673ffffffffffffffffffffffffffffffffffffffff1681526020019081526020015f205f8373ffffffffffffffffffffffffffffffffffffffff1673ffffffffffffffffffffffffffffffffffffffff1681526020019081526020015f2054905092915050565b5f5f6111348361112f90613a15565b61168c565b90505f611142863384611b24565b905061114f868683611b5f565b5080925050509392505050565b5f611178836111738461116e90613a15565b61168c565b611044565b905092915050565b5f7f01ffc9a7000000000000000000000000000000000000000000000000000000007bffffffffffffffffffffffffffffffffffffffffffffffffffffffff1916827bffffffffffffffffffffffffffffffffffffffffffffffffffffffff1916149050919050565b5f33905090565b6111fd8383836001611cd7565b505050565b5f61120d848461109e565b90507fffffffffffffffffffffffffffffffffffffffffffffffffffffffffffffffff81101561128f5781811015611280578281836040517ffb8f41b200000000000000000000000000000000000000000000000000000000815260040161127793929190613a27565b60405180910390fd5b61128e84848484035f611cd7565b5b50505050565b5f73ffffffffffffffffffffffffffffffffffffffff168373ffffffffffffffffffffffffffffffffffffffff1603611305575f6040517f96c6fd1e0000000000000000000000000000000000000000000000000000000081526004016112fc9190613a5c565b60405180910390fd5b5f73ffffffffffffffffffffffffffffffffffffffff168273ffffffffffffffffffffffffffffffffffffffff1603611375575f6040517fec442f0500000000000000000000000000000000000000000000000000000000815260040161136c9190613a5c565b60405180910390fd5b611380838383611ea6565b505050565b611396816113916111e9565b6120bf565b50565b5f6113a48383610de8565b611479576001600a5f8581526020019081526020015f205f015f8473ffffffffffffffffffffffffffffffffffffffff1673ffffffffffffffffffffffffffffffffffffffff1681526020019081526020015f205f6101000a81548160ff0219169083151502179055506114166111e9565b73ffffffffffffffffffffffffffffffffffffffff168273ffffffffffffffffffffffffffffffffffffffff16847f2f8788117e7eff1d82e926ec794901d17c78024a50270940304540a733656f0d60405160405180910390a46001905061147d565b5f90505b92915050565b5f61148e8383610de8565b15611563575f600a5f8581526020019081526020015f205f015f8473ffffffffffffffffffffffffffffffffffffffff1673ffffffffffffffffffffffffffffffffffffffff1681526020019081526020015f205f6101000a81548160ff0219169083151502179055506115006111e9565b73ffffffffffffffffffffffffffffffffffffffff168273ffffffffffffffffffffffffffffffffffffffff16847ff6391f5c32d9c69d2a47ea670b442974b53935d1edc7fd64eb21e047a839171b60405160405180910390a460019050611567565b5f90505b92915050565b5f61157f611579612110565b836121c6565b9050919050565b5f5f5f5f6115948686612206565b9250925092506115a4828261225b565b82935050505092915050565b60605f83905080836040516020016115c9929190613a75565b60405160208183030381529060405291505092915050565b5f6115eb8261168c565b905061163460075f8573ffffffffffffffffffffffffffffffffffffffff1673ffffffffffffffffffffffffffffffffffffffff1681526020019081526020015f205482611adb565b60075f8573ffffffffffffffffffffffffffffffffffffffff1673ffffffffffffffffffffffffffffffffffffffff1681526020019081526020015f208190555061168160095482611adb565b600981905550505050565b5f5f600490508060ff16836040015160ff16146116e6578260400151816040517f67cf30710000000000000000000000000000000000000000000000000000000081526004016116dd929190613a9c565b60405180910390fd5b6116f76116f2846123bd565b6123ff565b915050919050565b5f73ffffffffffffffffffffffffffffffffffffffff168373ffffffffffffffffffffffffffffffffffffffff160361176f575f6040517fe602df050000000000000000000000000000000000000000000000000000000081526004016117669190613a5c565b60405180910390fd5b5f73ffffffffffffffffffffffffffffffffffffffff168273ffffffffffffffffffffffffffffffffffffffff16036117df575f6040517f94280d620000000000000000000000000000000000000000000000000000000081526004016117d69190613a5c565b60405180910390fd5b8060085f8573ffffffffffffffffffffffffffffffffffffffff1673ffffffffffffffffffffffffffffffffffffffff1681526020019081526020015f205f8473ffffffffffffffffffffffffffffffffffffffff1673ffffffffffffffffffffffffffffffffffffffff1681526020019081526020015f2081905550505050565b5f61186c825f612496565b9050919050565b5f61187d836124b0565b61188d5761188a5f611861565b92505b611896826124b0565b6118a6576118a35f611861565b91505b6118b46004848460156124c1565b905092915050565b5f6118c6846125b0565b6118d6576118d35f6125c1565b93505b6118df836124b0565b6118ef576118ec5f611861565b92505b6118f8826124b0565b611908576119055f611861565b91505b61191560048585856125d3565b90509392505050565b5f611928836124b0565b611938576119355f611861565b92505b611941826124b0565b6119515761194e5f611861565b91505b61195f6004848460076124c1565b905092915050565b5f73ffffffffffffffffffffffffffffffffffffffff168273ffffffffffffffffffffffffffffffffffffffff16036119d7575f6040517fec442f050000000000000000000000000000000000000000000000000000000081526004016119ce9190613a5c565b60405180910390fd5b6119e25f8383611ea6565b5050565b6060611a1c60057f00000000000000000000000000000000000000000000000000000000000000006126c490919063ffffffff16565b905090565b6060611a5760067f00000000000000000000000000000000000000000000000000000000000000006126c490919063ffffffff16565b905090565b5f73ffffffffffffffffffffffffffffffffffffffff168273ffffffffffffffffffffffffffffffffffffffff1603611acc575f6040517f96c6fd1e000000000000000000000000000000000000000000000000000000008152600401611ac39190613a5c565b60405180910390fd5b611ad7825f83611ea6565b5050565b5f611ae5836124b0565b611af557611af25f611861565b92505b611afe826124b0565b611b0e57611b0b5f611861565b91505b611b1c6004848460086124c1565b905092915050565b5f5f611b308585610801565b90505f611b3d8285612771565b9050611b538686611b4e858561191e565b6116ff565b80925050509392505050565b5f5f611bba611bab8460075f8973ffffffffffffffffffffffffffffffffffffffff1673ffffffffffffffffffffffffffffffffffffffff1681526020019081526020015f20546127ba565b84611bb55f611861565b6118bc565b9050611c0360075f8673ffffffffffffffffffffffffffffffffffffffff1673ffffffffffffffffffffffffffffffffffffffff1681526020019081526020015f205482611adb565b60075f8673ffffffffffffffffffffffffffffffffffffffff1673ffffffffffffffffffffffffffffffffffffffff1681526020019081526020015f2081905550611c8b60075f8773ffffffffffffffffffffffffffffffffffffffff1673ffffffffffffffffffffffffffffffffffffffff1681526020019081526020015f20548261191e565b60075f8773ffffffffffffffffffffffffffffffffffffffff1673ffffffffffffffffffffffffffffffffffffffff1681526020019081526020015f2081905550809150509392505050565b5f73ffffffffffffffffffffffffffffffffffffffff168473ffffffffffffffffffffffffffffffffffffffff1603611d47575f6040517fe602df05000000000000000000000000000000000000000000000000000000008152600401611d3e9190613a5c565b60405180910390fd5b5f73ffffffffffffffffffffffffffffffffffffffff168373ffffffffffffffffffffffffffffffffffffffff1603611db7575f6040517f94280d62000000000000000000000000000000000000000000000000000000008152600401611dae9190613a5c565b60405180910390fd5b8160015f8673ffffffffffffffffffffffffffffffffffffffff1673ffffffffffffffffffffffffffffffffffffffff1681526020019081526020015f205f8573ffffffffffffffffffffffffffffffffffffffff1673ffffffffffffffffffffffffffffffffffffffff1681526020019081526020015f20819055508015611ea0578273ffffffffffffffffffffffffffffffffffffffff168473ffffffffffffffffffffffffffffffffffffffff167f8c5be1e5ebec7d5bd14f71427d1e84f3dd0314c0f7b2291e5b200ac8c7c3b92584604051611e979190612f75565b60405180910390a35b50505050565b5f73ffffffffffffffffffffffffffffffffffffffff168373ffffffffffffffffffffffffffffffffffffffff1603611ef6578060025f828254611eea9190613af0565b92505081905550611fc4565b5f5f5f8573ffffffffffffffffffffffffffffffffffffffff1673ffffffffffffffffffffffffffffffffffffffff1681526020019081526020015f2054905081811015611f7f578381836040517fe450d38c000000000000000000000000000000000000000000000000000000008152600401611f7693929190613a27565b60405180910390fd5b8181035f5f8673ffffffffffffffffffffffffffffffffffffffff1673ffffffffffffffffffffffffffffffffffffffff1681526020019081526020015f2081905550505b5f73ffffffffffffffffffffffffffffffffffffffff168273ffffffffffffffffffffffffffffffffffffffff160361200b578060025f8282540392505081905550612055565b805f5f8473ffffffffffffffffffffffffffffffffffffffff1673ffffffffffffffffffffffffffffffffffffffff1681526020019081526020015f205f82825401925050819055505b8173ffffffffffffffffffffffffffffffffffffffff168373ffffffffffffffffffffffffffffffffffffffff167fddf252ad1be2c89b69c2b068fc378daa952ba7f163c4a11628f55a4df523b3ef836040516120b29190612f75565b60405180910390a3505050565b6120c98282610de8565b61210c5780826040517fe2517d3f000000000000000000000000000000000000000000000000000000008152600401612103929190613b23565b60405180910390fd5b5050565b5f7f000000000000000000000000000000000000000000000000000000000000000073ffffffffffffffffffffffffffffffffffffffff163073ffffffffffffffffffffffffffffffffffffffff1614801561218b57507f000000000000000000000000000000000000000000000000000000000000000046145b156121b8577f000000000000000000000000000000000000000000000000000000000000000090506121c3565b6121c0612803565b90505b90565b5f6040517f190100000000000000000000000000000000000000000000000000000000000081528360028201528260228201526042812091505092915050565b5f5f5f6041845103612246575f5f5f602087015192506040870151915060608701515f1a905061223888828585612898565b955095509550505050612254565b5f600285515f1b9250925092505b9250925092565b5f600381111561226e5761226d613b4a565b5b82600381111561228157612280613b4a565b5b03156123b9576001600381111561229b5761229a613b4a565b5b8260038111156122ae576122ad613b4a565b5b036122e5576040517ff645eedf00000000000000000000000000000000000000000000000000000000815260040160405180910390fd5b600260038111156122f9576122f8613b4a565b5b82600381111561230c5761230b613b4a565b5b0361235057805f1c6040517ffce698f70000000000000000000000000000000000000000000000000000000081526004016123479190612f75565b60405180910390fd5b60038081111561236357612362613b4a565b5b82600381111561237657612375613b4a565b5b036123b857806040517fd78bce0c0000000000000000000000000000000000000000000000000000000081526004016123af91906130db565b60405180910390fd5b5b5050565b6123c5612d1c565b6040518060800160405280835f01518152602001836020015160ff168152602001600460ff16815260200183606001518152509050919050565b5f73020000000000000000000000000000000000008073ffffffffffffffffffffffffffffffffffffffff166327f9c76283336040518363ffffffff1660e01b815260040161244f929190613c2e565b6020604051808303815f875af115801561246b573d5f5f3e3d5ffd5b505050506040513d601f19601f8201168201806040525081019061248f9190613c70565b9050919050565b5f5f6124a48460048561297f565b90508091505092915050565b5f6124ba82612a7a565b9050919050565b5f73020000000000000000000000000000000000008073ffffffffffffffffffffffffffffffffffffffff16631888debd86846124fe8888612a86565b5f67ffffffffffffffff81111561251857612517613258565b5b6040519080825280602002602001820160405280156125465781602001602082028036833780820191505090505b506040518563ffffffff1660e01b81526004016125669493929190613ce1565b6020604051808303815f875af1158015612582573d5f5f3e3d5ffd5b505050506040513d601f19601f820116820180604052508101906125a69190613c70565b9050949350505050565b5f6125ba82612a7a565b9050919050565b5f6125cc825f612b20565b9050919050565b5f73020000000000000000000000000000000000008073ffffffffffffffffffffffffffffffffffffffff16631888debd866004612612888888612b49565b5f67ffffffffffffffff81111561262c5761262b613258565b5b60405190808252806020026020018201604052801561265a5781602001602082028036833780820191505090505b506040518563ffffffff1660e01b815260040161267a9493929190613ce1565b6020604051808303815f875af1158015612696573d5f5f3e3d5ffd5b505050506040513d601f19601f820116820180604052508101906126ba9190613c70565b9050949350505050565b606060ff5f1b83146126e0576126d983612c05565b905061276b565b8180546126ec906139ac565b80601f0160208091040260200160405190810160405280929190818152602001828054612718906139ac565b80156127635780601f1061273a57610100808354040283529160200191612763565b820191905f5260205f20905b81548152906001019060200180831161274657829003601f168201915b505050505090505b92915050565b5f61277b836124b0565b61278b576127885f611861565b92505b612794826124b0565b6127a4576127a15f611861565b91505b6127b26004848460166124c1565b905092915050565b5f6127c4836124b0565b6127d4576127d15f611861565b92505b6127dd826124b0565b6127ed576127ea5f611861565b91505b6127fb6004848460146124c1565b905092915050565b5f7f8b73c3c69bb8fe3d512ecc4cf759cc79239f7b179b0ffacaa9a75d522b39400f7f00000000000000000000000000000000000000000000000000000000000000007f0000000000000000000000000000000000000000000000000000000000000000463060405160200161287d959493929190613d32565b60405160208183030381529060405280519060200120905090565b5f5f5f7f7fffffffffffffffffffffffffffffff5d576e7357a4501ddfe92f46681b20a0845f1c11156128d4575f600385925092509250612975565b5f6001888888886040515f81526020016040526040516128f79493929190613d83565b6020604051602081039080840390855afa158015612917573d5f5f3e3d5ffd5b5050506020604051035190505f73ffffffffffffffffffffffffffffffffffffffff168173ffffffffffffffffffffffffffffffffffffffff1603612968575f60015f5f1b93509350935050612975565b805f5f5f1b935093509350505b9450945094915050565b5f73020000000000000000000000000000000000008073ffffffffffffffffffffffffffffffffffffffff16631888debd84601a5f67ffffffffffffffff8111156129cd576129cc613258565b5b6040519080825280602002602001820160405280156129fb5781602001602082028036833780820191505090505b50612a12898960ff16612a0d8a612c77565b612b49565b6040518563ffffffff1660e01b8152600401612a319493929190613ce1565b6020604051808303815f875af1158015612a4d573d5f5f3e3d5ffd5b505050506040513d601f19601f82011682018060405250810190612a719190613c70565b90509392505050565b5f5f8214159050919050565b60605f600267ffffffffffffffff811115612aa457612aa3613258565b5b604051908082528060200260200182016040528015612ad25781602001602082028036833780820191505090505b50905083815f81518110612ae957612ae8613dc6565b5b6020026020010181815250508281600181518110612b0a57612b09613dc6565b5b6020026020010181815250508091505092915050565b5f5f5f90508315612b3057600190505b5f612b3c825f8661297f565b9050809250505092915050565b60605f600367ffffffffffffffff811115612b6757612b66613258565b5b604051908082528060200260200182016040528015612b955781602001602082028036833780820191505090505b50905084815f81518110612bac57612bab613dc6565b5b6020026020010181815250508381600181518110612bcd57612bcc613dc6565b5b6020026020010181815250508281600281518110612bee57612bed613dc6565b5b602002602001018181525050809150509392505050565b60605f612c1183612cce565b90505f602067ffffffffffffffff811115612c2f57612c2e613258565b5b6040519080825280601f01601f191660200182016040528015612c615781602001600182028036833780820191505090505b5090508181528360208201528092505050919050565b5f5f8260030b1215612cc057816040517f8f568bf8000000000000000000000000000000000000000000000000000000008152600401612cb79190613e0e565b60405180910390fd5b8163ffffffff169050919050565b5f5f60ff835f1c169050601f811115612d13576040517fb3512b0c00000000000000000000000000000000000000000000000000000000815260040160405180910390fd5b80915050919050565b60405180608001604052805f81526020015f60ff1681526020015f60ff168152602001606081525090565b5f604051905090565b5f5ffd5b5f5ffd5b5f7fffffffff0000000000000000000000000000000000000000000000000000000082169050919050565b612d8c81612d58565b8114612d96575f5ffd5b50565b5f81359050612da781612d83565b92915050565b5f60208284031215612dc257612dc1612d50565b5b5f612dcf84828501612d99565b91505092915050565b5f8115159050919050565b612dec81612dd8565b82525050565b5f602082019050612e055f830184612de3565b92915050565b5f81519050919050565b5f82825260208201905092915050565b8281835e5f83830152505050565b5f601f19601f8301169050919050565b5f612e4d82612e0b565b612e578185612e15565b9350612e67818560208601612e25565b612e7081612e33565b840191505092915050565b5f6020820190508181035f830152612e938184612e43565b905092915050565b5f73ffffffffffffffffffffffffffffffffffffffff82169050919050565b5f612ec482612e9b565b9050919050565b612ed481612eba565b8114612ede575f5ffd5b50565b5f81359050612eef81612ecb565b92915050565b5f819050919050565b612f0781612ef5565b8114612f11575f5ffd5b50565b5f81359050612f2281612efe565b92915050565b5f5f60408385031215612f3e57612f3d612d50565b5b5f612f4b85828601612ee1565b9250506020612f5c85828601612f14565b9150509250929050565b612f6f81612ef5565b82525050565b5f602082019050612f885f830184612f66565b92915050565b5f5f5f60608486031215612fa557612fa4612d50565b5b5f612fb286828701612ee1565b9350506020612fc386828701612ee1565b9250506040612fd486828701612f14565b9150509250925092565b5f5f60408385031215612ff457612ff3612d50565b5b5f61300185828601612ee1565b925050602061301285828601612ee1565b9150509250929050565b5f819050919050565b5f61303f61303a61303584612ef5565b61301c565b612ef5565b9050919050565b61304f81613025565b82525050565b5f6020820190506130685f830184613046565b92915050565b5f819050919050565b6130808161306e565b811461308a575f5ffd5b50565b5f8135905061309b81613077565b92915050565b5f602082840312156130b6576130b5612d50565b5b5f6130c38482850161308d565b91505092915050565b6130d58161306e565b82525050565b5f6020820190506130ee5f8301846130cc565b92915050565b5f5f6040838503121561310a57613109612d50565b5b5f6131178582860161308d565b925050602061312885828601612ee1565b9150509250929050565b5f60ff82169050919050565b61314781613132565b82525050565b5f6020820190506131605f83018461313e565b92915050565b5f5ffd5b5f6040828403121561317f5761317e613166565b5b81905092915050565b5f5f6040838503121561319e5761319d612d50565b5b5f6131ab85828601612ee1565b925050602083013567ffffffffffffffff8111156131cc576131cb612d54565b5b6131d88582860161316a565b9150509250929050565b5f81519050919050565b5f82825260208201905092915050565b5f613206826131e2565b61321081856131ec565b9350613220818560208601612e25565b61322981612e33565b840191505092915050565b5f6020820190508181035f83015261324c81846131fc565b905092915050565b5f5ffd5b7f4e487b71000000000000000000000000000000000000000000000000000000005f52604160045260245ffd5b61328e82612e33565b810181811067ffffffffffffffff821117156132ad576132ac613258565b5b80604052505050565b5f6132bf612d47565b90506132cb8282613285565b919050565b5f5ffd5b6132dd81613132565b81146132e7575f5ffd5b50565b5f813590506132f8816132d4565b92915050565b5f5ffd5b5f5ffd5b5f67ffffffffffffffff8211156133205761331f613258565b5b61332982612e33565b9050602081019050919050565b828183375f83830152505050565b5f61335661335184613306565b6132b6565b90508281526020810184848401111561337257613371613302565b5b61337d848285613336565b509392505050565b5f82601f830112613399576133986132fe565b5b81356133a9848260208601613344565b91505092915050565b5f608082840312156133c7576133c6613254565b5b6133d160806132b6565b90505f6133e084828501612f14565b5f8301525060206133f3848285016132ea565b6020830152506040613407848285016132ea565b604083015250606082013567ffffffffffffffff81111561342b5761342a6132d0565b5b61343784828501613385565b60608301525092915050565b5f5f6040838503121561345957613458612d50565b5b5f61346685828601612ee1565b925050602083013567ffffffffffffffff81111561348757613486612d54565b5b613493858286016133b2565b9150509250929050565b5f608082840312156134b2576134b1613166565b5b81905092915050565b5f602082840312156134d0576134cf612d50565b5b5f82013567ffffffffffffffff8111156134ed576134ec612d54565b5b6134f98482850161349d565b91505092915050565b5f6040828403121561351757613516613254565b5b61352160406132b6565b90505f6135308482850161308d565b5f83015250602082013567ffffffffffffffff811115613553576135526132d0565b5b61355f84828501613385565b60208301525092915050565b5f5f6040838503121561358157613580612d50565b5b5f61358e85828601612ee1565b925050602083013567ffffffffffffffff8111156135af576135ae612d54565b5b6135bb85828601613502565b9150509250929050565b5f5f604083850312156135db576135da612d50565b5b5f6135e885828601612ee1565b925050602083013567ffffffffffffffff81111561360957613608612d54565b5b6136158582860161349d565b9150509250929050565b5f63ffffffff82169050919050565b6136378161361f565b8114613641575f5ffd5b50565b5f813590506136528161362e565b92915050565b5f6020828403121561366d5761366c612d50565b5b5f61367a84828501613644565b91505092915050565b5f6020828403121561369857613697612d50565b5b5f6136a584828501612ee1565b91505092915050565b5f7fff0000000000000000000000000000000000000000000000000000000000000082169050919050565b6136e2816136ae565b82525050565b6136f181612eba565b82525050565b5f81519050919050565b5f82825260208201905092915050565b5f819050602082019050919050565b61372981612ef5565b82525050565b5f61373a8383613720565b60208301905092915050565b5f602082019050919050565b5f61375c826136f7565b6137668185613701565b935061377183613711565b805f5b838110156137a1578151613788888261372f565b975061379383613746565b925050600181019050613774565b5085935050505092915050565b5f60e0820190506137c15f83018a6136d9565b81810360208301526137d38189612e43565b905081810360408301526137e78188612e43565b90506137f66060830187612f66565b61380360808301866136e8565b61381060a08301856130cc565b81810360c08301526138228184613752565b905098975050505050505050565b5f6020828403121561384557613844612d50565b5b5f61385284828501612f14565b91505092915050565b61386481612ef5565b811461386e575f5ffd5b50565b5f8135905061387f8161385b565b92915050565b5f5f5f6060848603121561389c5761389b612d50565b5b5f6138a986828701612ee1565b93505060206138ba86828701612ee1565b92505060406138cb86828701613871565b9150509250925092565b5f5f604083850312156138eb576138ea612d50565b5b5f6138f885828601612ee1565b925050602061390985828601613871565b9150509250929050565b5f5f5f6060848603121561392a57613929612d50565b5b5f61393786828701612ee1565b935050602061394886828701612ee1565b925050604084013567ffffffffffffffff81111561396957613968612d54565b5b6139758682870161349d565b9150509250925092565b7f4e487b71000000000000000000000000000000000000000000000000000000005f52602260045260245ffd5b5f60028204905060018216806139c357607f821691505b6020821081036139d6576139d561397f565b5b50919050565b5f6139e73683613502565b9050919050565b5f604082019050613a015f8301856130cc565b613a0e60208301846130cc565b9392505050565b5f613a2036836133b2565b9050919050565b5f606082019050613a3a5f8301866136e8565b613a476020830185612f66565b613a546040830184612f66565b949350505050565b5f602082019050613a6f5f8301846136e8565b92915050565b5f604082019050613a885f830185612f66565b613a9560208301846130cc565b9392505050565b5f604082019050613aaf5f83018561313e565b613abc602083018461313e565b9392505050565b7f4e487b71000000000000000000000000000000000000000000000000000000005f52601160045260245ffd5b5f613afa82612ef5565b9150613b0583612ef5565b9250828201905080821115613b1d57613b1c613ac3565b5b92915050565b5f604082019050613b365f8301856136e8565b613b4360208301846130cc565b9392505050565b7f4e487b71000000000000000000000000000000000000000000000000000000005f52602160045260245ffd5b613b8081613132565b82525050565b5f82825260208201905092915050565b5f613ba0826131e2565b613baa8185613b86565b9350613bba818560208601612e25565b613bc381612e33565b840191505092915050565b5f608083015f830151613be35f860182613720565b506020830151613bf66020860182613b77565b506040830151613c096040860182613b77565b5060608301518482036060860152613c218282613b96565b9150508091505092915050565b5f6040820190508181035f830152613c468185613bce565b9050613c5560208301846136e8565b9392505050565b5f81519050613c6a81612efe565b92915050565b5f60208284031215613c8557613c84612d50565b5b5f613c9284828501613c5c565b91505092915050565b60208110613cac57613cab613b4a565b5b50565b5f819050613cbc82613c9b565b919050565b5f613ccb82613caf565b9050919050565b613cdb81613cc1565b82525050565b5f608082019050613cf45f83018761313e565b613d016020830186613cd2565b8181036040830152613d138185613752565b90508181036060830152613d278184613752565b905095945050505050565b5f60a082019050613d455f8301886130cc565b613d5260208301876130cc565b613d5f60408301866130cc565b613d6c6060830185612f66565b613d7960808301846136e8565b9695505050505050565b5f608082019050613d965f8301876130cc565b613da3602083018661313e565b613db060408301856130cc565b613dbd60608301846130cc565b95945050505050565b7f4e487b71000000000000000000000000000000000000000000000000000000005f52603260045260245ffd5b5f8160030b9050919050565b613e0881613df3565b82525050565b5f602082019050613e215f830184613dff565b9291505056fea264697066735822122083d9f26f9cd3b05cd18295ac273ce30b12f9776024103d89a5c77b96966a4ad564736f6c634300081b0033","linkReferences":{}},"methodIdentifiers":{"DEFAULT_ADMIN_ROLE()":"a217fddf","MINTER_ROLE()":"d5391393","_allowanceEncrypted(address,address)":"23db9354","allowance(address,address)":"dd62ed3e","allowanceEncrypted(address,(bytes32,bytes))":"5356c429","approve(address,uint256)":"095ea7b3","approveEncrypted(address,(uint256,uint8,uint8,bytes))":"63c05a33","balanceOf(address)":"70a08231","balanceOfEncrypted(address,(bytes32,bytes))":"60277204","decimals()":"313ce567","eip712Domain()":"84b0196e","getRoleAdmin(bytes32)":"248a9ca3","grantRole(bytes32,address)":"2f2ff15d","hasRole(bytes32,address)":"91d14854","mint(uint256)":"a0712d68","mintEncrypted((uint256,uint8,uint8,bytes))":"5fd006b1","mintEncrypted(address,(uint256,uint8,uint8,bytes))":"5b6c6b3e","name()":"06fdde03","renounceRole(bytes32,address)":"36568abe","revokeRole(bytes32,address)":"d547741f","supportsInterface(bytes4)":"01ffc9a7","symbol()":"95d89b41","totalSupply()":"18160ddd","transfer(address,uint256)":"a9059cbb","transferEncrypted(address,(uint256,uint8,uint8,bytes))":"fe229cbe","transferEncrypted(address,uint256)":"c4224c19","transferFrom(address,address,uint256)":"23b872dd","transferFromEncrypted(address,address,(uint256,uint8,uint8,bytes))":"e1a136d5","transferFromEncrypted(address,address,uint256)":"af575a00","unwrap(uint32)":"6e0505e1","wrap(uint32)":"9f284be7"},"id":3}