{"abi":[{"type":"constructor","inputs":[{"name":"name","type":"string","internalType":"string"},{"name":"symbol","type":"string","internalType":"string"}],"stateMutability":"nonpayable"},{"type":"function","name":"_allowanceEncrypted","inputs":[{"name":"owner","type":"address","internalType":"address"},{"name":"spender","type":"address","internalType":"address"}],"outputs":[{"name":"","type":"uint256","internalType":"euint32"}],"stateMutability":"view"},{"type":"function","name":"allowance","inputs":[{"name":"owner","type":"address","internalType":"address"},{"name":"spender","type":"address","internalType":"address"}],"outputs":[{"name":"","type":"uint256","internalType":"uint256"}],"stateMutability":"view"},{"type":"function","name":"allowanceEncrypted","inputs":[{"name":"spender","type":"address","internalType":"address"},{"name":"permission","type":"tuple","internalType":"struct Permission","components":[{"name":"publicKey","type":"bytes32","internalType":"bytes32"},{"name":"signature","type":"bytes","internalType":"bytes"}]}],"outputs":[{"name":"","type":"bytes","internalType":"bytes"}],"stateMutability":"view"},{"type":"function","name":"approve","inputs":[{"name":"spender","type":"address","internalType":"address"},{"name":"value","type":"uint256","internalType":"uint256"}],"outputs":[{"name":"","type":"bool","internalType":"bool"}],"stateMutability":"nonpayable"},{"type":"function","name":"approveEncrypted","inputs":[{"name":"spender","type":"address","internalType":"address"},{"name":"value","type":"tuple","internalType":"struct Euint32","components":[{"name":"ctHash","type":"uint256","internalType":"uint256"},{"name":"securityZone","type":"uint8","internalType":"uint8"},{"name":"utype","type":"uint8","internalType":"uint8"},{"name":"signature","type":"bytes","internalType":"bytes"}]}],"outputs":[{"name":"","type":"bool","internalType":"bool"}],"stateMutability":"nonpayable"},{"type":"function","name":"balanceOf","inputs":[{"name":"account","type":"address","internalType":"address"}],"outputs":[{"name":"","type":"uint256","internalType":"uint256"}],"stateMutability":"view"},{"type":"function","name":"balanceOfEncrypted","inputs":[{"name":"account","type":"address","internalType":"address"},{"name":"auth","type":"tuple","internalType":"struct Permission","components":[{"name":"publicKey","type":"bytes32","internalType":"bytes32"},{"name":"signature","type":"bytes","internalType":"bytes"}]}],"outputs":[{"name":"","type":"bytes","internalType":"bytes"}],"stateMutability":"view"},{"type":"function","name":"decimals","inputs":[],"outputs":[{"name":"","type":"uint8","internalType":"uint8"}],"stateMutability":"view"},{"type":"function","name":"eip712Domain","inputs":[],"outputs":[{"name":"fields","type":"bytes1","internalType":"bytes1"},{"name":"name","type":"string","internalType":"string"},{"name":"version","type":"string","internalType":"string"},{"name":"chainId","type":"uint256","internalType":"uint256"},{"name":"verifyingContract","type":"address","internalType":"address"},{"name":"salt","type":"bytes32","internalType":"bytes32"},{"name":"extensions","type":"uint256[]","internalType":"uint256[]"}],"stateMutability":"view"},{"type":"function","name":"mint","inputs":[{"name":"amount","type":"uint256","internalType":"uint256"}],"outputs":[],"stateMutability":"nonpayable"},{"type":"function","name":"mintEncrypted","inputs":[{"name":"encryptedAmount","type":"tuple","internalType":"struct Euint32","components":[{"name":"ctHash","type":"uint256","internalType":"uint256"},{"name":"securityZone","type":"uint8","internalType":"uint8"},{"name":"utype","type":"uint8","internalType":"uint8"},{"name":"signature","type":"bytes","internalType":"bytes"}]}],"outputs":[],"stateMutability":"nonpayable"},{"type":"function","name":"name","inputs":[],"outputs":[{"name":"","type":"string","internalType":"string"}],"stateMutability":"view"},{"type":"function","name":"symbol","inputs":[],"outputs":[{"name":"","type":"string","internalType":"string"}],"stateMutability":"view"},{"type":"function","name":"totalSupply","inputs":[],"outputs":[{"name":"","type":"uint256","internalType":"uint256"}],"stateMutability":"view"},{"type":"function","name":"transfer","inputs":[{"name":"to","type":"address","internalType":"address"},{"name":"value","type":"uint256","internalType":"uint256"}],"outputs":[{"name":"","type":"bool","internalType":"bool"}],"stateMutability":"nonpayable"},{"type":"function","name":"transferEncrypted","inputs":[{"name":"to","type":"address","internalType":"address"},{"name":"amount","type":"uint256","internalType":"euint32"}],"outputs":[{"name":"","type":"uint256","internalType":"euint32"}],"stateMutability":"nonpayable"},{"type":"function","name":"transferEncrypted","inputs":[{"name":"to","type":"address","internalType":"address"},{"name":"encryptedAmount","type":"tuple","internalType":"struct Euint32","components":[{"name":"ctHash","type":"uint256","internalType":"uint256"},{"name":"securityZone","type":"uint8","internalType":"uint8"},{"name":"utype","type":"uint8","internalType":"uint8"},{"name":"signature","type":"bytes","internalType":"bytes"}]}],"outputs":[{"name":"","type":"uint256","internalType":"euint32"}],"stateMutability":"nonpayable"},{"type":"function","name":"transferFrom","inputs":[{"name":"from","type":"address","internalType":"address"},{"name":"to","type":"address","internalType":"address"},{"name":"value","type":"uint256","internalType":"uint256"}],"outputs":[{"name":"","type":"bool","internalType":"bool"}],"stateMutability":"nonpayable"},{"type":"function","name":"transferFromEncrypted","inputs":[{"name":"from","type":"address","internalType":"address"},{"name":"to","type":"address","internalType":"address"},{"name":"value","type":"uint256","internalType":"euint32"}],"outputs":[{"name":"","type":"uint256","internalType":"euint32"}],"stateMutability":"nonpayable"},{"type":"function","name":"transferFromEncrypted","inputs":[{"name":"from","type":"address","internalType":"address"},{"name":"to","type":"address","internalType":"address"},{"name":"value","type":"tuple","internalType":"struct Euint32","components":[{"name":"ctHash","type":"uint256","internalType":"uint256"},{"name":"securityZone","type":"uint8","internalType":"uint8"},{"name":"utype","type":"uint8","internalType":"uint8"},{"name":"signature","type":"bytes","internalType":"bytes"}]}],"outputs":[{"name":"","type":"uint256","internalType":"euint32"}],"stateMutability":"nonpayable"},{"type":"function","name":"unwrap","inputs":[{"name":"amount","type":"uint32","internalType":"uint32"}],"outputs":[],"stateMutability":"nonpayable"},{"type":"function","name":"wrap","inputs":[{"name":"amount","type":"uint32","internalType":"uint32"}],"outputs":[],"stateMutability":"nonpayable"},{"type":"event","name":"Approval","inputs":[{"name":"owner","type":"address","indexed":true,"internalType":"address"},{"name":"spender","type":"address","indexed":true,"internalType":"address"},{"name":"value","type":"uint256","indexed":false,"internalType":"uint256"}],"anonymous":false},{"type":"event","name":"ApprovalEncrypted","inputs":[{"name":"owner","type":"address","indexed":true,"internalType":"address"},{"name":"spender","type":"address","indexed":true,"internalType":"address"}],"anonymous":false},{"type":"event","name":"EIP712DomainChanged","inputs":[],"anonymous":false},{"type":"event","name":"Transfer","inputs":[{"name":"from","type":"address","indexed":true,"internalType":"address"},{"name":"to","type":"address","indexed":true,"internalType":"address"},{"name":"value","type":"uint256","indexed":false,"internalType":"uint256"}],"anonymous":false},{"type":"event","name":"TransferEncrypted","inputs":[{"name":"from","type":"address","indexed":true,"internalType":"address"},{"name":"to","type":"address","indexed":true,"internalType":"address"}],"anonymous":false},{"type":"error","name":"ECDSAInvalidSignature","inputs":[]},{"type":"error","name":"ECDSAInvalidSignatureLength","inputs":[{"name":"length","type":"uint256","internalType":"uint256"}]},{"type":"error","name":"ECDSAInvalidSignatureS","inputs":[{"name":"s","type":"bytes32","internalType":"bytes32"}]},{"type":"error","name":"ERC20InsufficientAllowance","inputs":[{"name":"spender","type":"address","internalType":"address"},{"name":"allowance","type":"uint256","internalType":"uint256"},{"name":"needed","type":"uint256","internalType":"uint256"}]},{"type":"error","name":"ERC20InsufficientBalance","inputs":[{"name":"sender","type":"address","internalType":"address"},{"name":"balance","type":"uint256","internalType":"uint256"},{"name":"needed","type":"uint256","internalType":"uint256"}]},{"type":"error","name":"ERC20InvalidApprover","inputs":[{"name":"approver","type":"address","internalType":"address"}]},{"type":"error","name":"ERC20InvalidReceiver","inputs":[{"name":"receiver","type":"address","internalType":"address"}]},{"type":"error","name":"ERC20InvalidSender","inputs":[{"name":"sender","type":"address","internalType":"address"}]},{"type":"error","name":"ERC20InvalidSpender","inputs":[{"name":"spender","type":"address","internalType":"address"}]},{"type":"error","name":"ErrorInsufficientFunds","inputs":[]},{"type":"error","name":"InvalidEncryptedInput","inputs":[{"name":"got","type":"uint8","internalType":"uint8"},{"name":"expected","type":"uint8","internalType":"uint8"}]},{"type":"error","name":"InvalidShortString","inputs":[]},{"type":"error","name":"SecurityZoneOutOfBounds","inputs":[{"name":"value","type":"int32","internalType":"int32"}]},{"type":"error","name":"SignerNotMessageSender","inputs":[]},{"type":"error","name":"SignerNotOwner","inputs":[]},{"type":"error","name":"StringTooLong","inputs":[{"name":"str","type":"string","internalType":"string"}]}],"bytecode":{"object":"0x6101606040526100145f61018560201b60201c565b600955348015610022575f5ffd5b5060405161442e38038061442e83398181016040528101906100449190610639565b6040518060400160405280601181526020017f4c7578464845205065726d697373696f6e0000000000000000000000000000008152506040518060400160405280600381526020017f312e300000000000000000000000000000000000000000000000000000000000815250838381600390816100c191906108bf565b5080600490816100d191906108bf565b5050506100e860058361019d60201b90919060201c565b610120818152505061010460068261019d60201b90919060201c565b6101408181525050818051906020012060e08181525050808051906020012061010081815250504660a081815250506101416101ea60201b60201c565b608081815250503073ffffffffffffffffffffffffffffffffffffffff1660c08173ffffffffffffffffffffffffffffffffffffffff168152505050505050610d8c565b5f610196825f61024460201b60201c565b9050919050565b5f6020835110156101be576101b78361026460201b60201c565b90506101e4565b826101ce836102c960201b60201c565b5f0190816101dc91906108bf565b5060ff5f1b90505b92915050565b5f7f8b73c3c69bb8fe3d512ecc4cf759cc79239f7b179b0ffacaa9a75d522b39400f60e0516101005146306040516020016102299594939291906109f4565b60405160208183030381529060405280519060200120905090565b5f5f610258846004856102d260201b60201c565b90508091505092915050565b5f5f829050601f815111156102b057826040517f305a27a90000000000000000000000000000000000000000000000000000000081526004016102a79190610a8d565b60405180910390fd5b8051816102bc90610ada565b5f1c175f1b915050919050565b5f819050919050565b5f73020000000000000000000000000000000000008073ffffffffffffffffffffffffffffffffffffffff16631888debd84601a5f67ffffffffffffffff8111156103205761031f610515565b5b60405190808252806020026020018201604052801561034e5781602001602082028036833780820191505090505b50610371898960ff166103668a6103d960201b60201c565b61043060201b60201c565b6040518563ffffffff1660e01b81526004016103909493929190610c85565b6020604051808303815f875af11580156103ac573d5f5f3e3d5ffd5b505050506040513d601f19601f820116820180604052508101906103d09190610d00565b90509392505050565b5f5f8260030b121561042257816040517f8f568bf80000000000000000000000000000000000000000000000000000000081526004016104199190610d46565b60405180910390fd5b8163ffffffff169050919050565b60605f600367ffffffffffffffff81111561044e5761044d610515565b5b60405190808252806020026020018201604052801561047c5781602001602082028036833780820191505090505b50905084815f8151811061049357610492610d5f565b5b60200260200101818152505083816001815181106104b4576104b3610d5f565b5b60200260200101818152505082816002815181106104d5576104d4610d5f565b5b602002602001018181525050809150509392505050565b5f604051905090565b5f5ffd5b5f5ffd5b5f5ffd5b5f5ffd5b5f601f19601f8301169050919050565b7f4e487b71000000000000000000000000000000000000000000000000000000005f52604160045260245ffd5b61054b82610505565b810181811067ffffffffffffffff8211171561056a57610569610515565b5b80604052505050565b5f61057c6104ec565b90506105888282610542565b919050565b5f67ffffffffffffffff8211156105a7576105a6610515565b5b6105b082610505565b9050602081019050919050565b8281835e5f83830152505050565b5f6105dd6105d88461058d565b610573565b9050828152602081018484840111156105f9576105f8610501565b5b6106048482856105bd565b509392505050565b5f82601f8301126106205761061f6104fd565b5b81516106308482602086016105cb565b91505092915050565b5f5f6040838503121561064f5761064e6104f5565b5b5f83015167ffffffffffffffff81111561066c5761066b6104f9565b5b6106788582860161060c565b925050602083015167ffffffffffffffff811115610699576106986104f9565b5b6106a58582860161060c565b9150509250929050565b5f81519050919050565b7f4e487b71000000000000000000000000000000000000000000000000000000005f52602260045260245ffd5b5f60028204905060018216806106fd57607f821691505b6020821081036107105761070f6106b9565b5b50919050565b5f819050815f5260205f209050919050565b5f6020601f8301049050919050565b5f82821b905092915050565b5f600883026107727fffffffffffffffffffffffffffffffffffffffffffffffffffffffffffffffff82610737565b61077c8683610737565b95508019841693508086168417925050509392505050565b5f819050919050565b5f819050919050565b5f6107c06107bb6107b684610794565b61079d565b610794565b9050919050565b5f819050919050565b6107d9836107a6565b6107ed6107e5826107c7565b848454610743565b825550505050565b5f5f905090565b6108046107f5565b61080f8184846107d0565b505050565b5b81811015610832576108275f826107fc565b600181019050610815565b5050565b601f8211156108775761084881610716565b61085184610728565b81016020851015610860578190505b61087461086c85610728565b830182610814565b50505b505050565b5f82821c905092915050565b5f6108975f198460080261087c565b1980831691505092915050565b5f6108af8383610888565b9150826002028217905092915050565b6108c8826106af565b67ffffffffffffffff8111156108e1576108e0610515565b5b6108eb82546106e6565b6108f6828285610836565b5f60209050601f831160018114610927575f8415610915578287015190505b61091f85826108a4565b865550610986565b601f19841661093586610716565b5f5b8281101561095c57848901518255600182019150602085019450602081019050610937565b868310156109795784890151610975601f891682610888565b8355505b6001600288020188555050505b505050505050565b5f819050919050565b6109a08161098e565b82525050565b6109af81610794565b82525050565b5f73ffffffffffffffffffffffffffffffffffffffff82169050919050565b5f6109de826109b5565b9050919050565b6109ee816109d4565b82525050565b5f60a082019050610a075f830188610997565b610a146020830187610997565b610a216040830186610997565b610a2e60608301856109a6565b610a3b60808301846109e5565b9695505050505050565b5f82825260208201905092915050565b5f610a5f826106af565b610a698185610a45565b9350610a798185602086016105bd565b610a8281610505565b840191505092915050565b5f6020820190508181035f830152610aa58184610a55565b905092915050565b5f81519050919050565b5f819050602082019050919050565b5f610ad1825161098e565b80915050919050565b5f610ae482610aad565b82610aee84610ab7565b9050610af981610ac6565b92506020821015610b3957610b347fffffffffffffffffffffffffffffffffffffffffffffffffffffffffffffffff83602003600802610737565b831692505b5050919050565b5f60ff82169050919050565b610b5581610b40565b82525050565b7f4e487b71000000000000000000000000000000000000000000000000000000005f52602160045260245ffd5b60208110610b9957610b98610b5b565b5b50565b5f819050610ba982610b88565b919050565b5f610bb882610b9c565b9050919050565b610bc881610bae565b82525050565b5f81519050919050565b5f82825260208201905092915050565b5f819050602082019050919050565b610c0081610794565b82525050565b5f610c118383610bf7565b60208301905092915050565b5f602082019050919050565b5f610c3382610bce565b610c3d8185610bd8565b9350610c4883610be8565b805f5b83811015610c78578151610c5f8882610c06565b9750610c6a83610c1d565b925050600181019050610c4b565b5085935050505092915050565b5f608082019050610c985f830187610b4c565b610ca56020830186610bbf565b8181036040830152610cb78185610c29565b90508181036060830152610ccb8184610c29565b905095945050505050565b610cdf81610794565b8114610ce9575f5ffd5b50565b5f81519050610cfa81610cd6565b92915050565b5f60208284031215610d1557610d146104f5565b5b5f610d2284828501610cec565b91505092915050565b5f8160030b9050919050565b610d4081610d2b565b82525050565b5f602082019050610d595f830184610d37565b92915050565b7f4e487b71000000000000000000000000000000000000000000000000000000005f52603260045260245ffd5b60805160a05160c05160e051610100516101205161014051613651610ddd5f395f6113d901525f61139e01525f6121a601525f61218501525f611a7101525f611ac701525f611af001526136515ff3fe608060405234801561000f575f5ffd5b5060043610610140575f3560e01c806370a08231116100b6578063a9059cbb1161007a578063a9059cbb146103a0578063af575a00146103d0578063c4224c1914610400578063dd62ed3e14610430578063e1a136d514610460578063fe229cbe1461049057610140565b806370a08231146102f657806384b0196e1461032657806395d89b411461034a5780639f284be714610368578063a0712d681461038457610140565b8063313ce56711610108578063313ce567146102105780635356c4291461022e5780635fd006b11461025e578063602772041461027a57806363c05a33146102aa5780636e0505e1146102da57610140565b806306fdde0314610144578063095ea7b31461016257806318160ddd1461019257806323b872dd146101b057806323db9354146101e0575b5f5ffd5b61014c6104c0565b6040516101599190612715565b60405180910390f35b61017c600480360381019061017791906127d3565b610550565b604051610189919061282b565b60405180910390f35b61019a610572565b6040516101a79190612853565b60405180910390f35b6101ca60048036038101906101c5919061286c565b61057b565b6040516101d7919061282b565b60405180910390f35b6101fa60048036038101906101f591906128bc565b6105a9565b6040516102079190612933565b60405180910390f35b61021861062b565b6040516102259190612967565b60405180910390f35b610248600480360381019061024391906129a2565b610633565b6040516102559190612a4e565b60405180910390f35b61027860048036038101906102739190612a8c565b61072d565b005b610294600480360381019061028f9190612ca3565b610743565b6040516102a19190612a4e565b60405180910390f35b6102c460048036038101906102bf9190612cfd565b61086a565b6040516102d1919061282b565b60405180910390f35b6102f460048036038101906102ef9190612d90565b610891565b005b610310600480360381019061030b9190612dbb565b6109ae565b60405161031d9190612853565b60405180910390f35b61032e6109f3565b6040516103419796959493929190612ef5565b60405180910390f35b610352610a98565b60405161035f9190612715565b60405180910390f35b610382600480360381019061037d9190612d90565b610b28565b005b61039e60048036038101906103999190612f77565b610c30565b005b6103ba60048036038101906103b591906127d3565b610c3d565b6040516103c7919061282b565b60405180910390f35b6103ea60048036038101906103e59190612fcc565b610c5f565b6040516103f79190612933565b60405180910390f35b61041a6004803603810190610415919061301c565b610c8a565b6040516104279190612933565b60405180910390f35b61044a600480360381019061044591906128bc565b610c9e565b6040516104579190612853565b60405180910390f35b61047a6004803603810190610475919061305a565b610d20565b6040516104879190612933565b60405180910390f35b6104aa60048036038101906104a59190612cfd565b610d5c565b6040516104b79190612933565b60405180910390f35b6060600380546104cf906130f3565b80601f01602080910402602001604051908101604052809291908181526020018280546104fb906130f3565b80156105465780601f1061051d57610100808354040283529160200191610546565b820191905f5260205f20905b81548152906001019060200180831161052957829003601f168201915b5050505050905090565b5f5f61055a610d80565b9050610567818585610d87565b600191505092915050565b5f600254905090565b5f5f610585610d80565b9050610592858285610d99565b61059d858585610e2c565b60019150509392505050565b5f60085f8473ffffffffffffffffffffffffffffffffffffffff1673ffffffffffffffffffffffffffffffffffffffff1681526020019081526020015f205f8373ffffffffffffffffffffffffffffffffffffffff1673ffffffffffffffffffffffffffffffffffffffff1681526020019081526020015f2054905092915050565b5f6012905090565b60608161063f90613123565b5f6106947f6bdaeb2d29561f159c7ef98b16b27015fb2aeb87209c7ee656226d912f59927d835f0151604051602001610679929190613135565b60405160208183030381529060405280519060200120610f1c565b90505f6106a5828460200151610f35565b90503373ffffffffffffffffffffffffffffffffffffffff168173ffffffffffffffffffffffffffffffffffffffff161461070c576040517f3093a27700000000000000000000000000000000000000000000000000000000815260040160405180910390fd5b61072261071933886105a9565b865f0135610f5f565b935050505092915050565b610740338261073b90613217565b610f90565b50565b606081835f61079c7f6bdaeb2d29561f159c7ef98b16b27015fb2aeb87209c7ee656226d912f59927d845f0151604051602001610781929190613135565b60405160208183030381529060405280519060200120610f1c565b90505f6107ad828560200151610f35565b90508273ffffffffffffffffffffffffffffffffffffffff168173ffffffffffffffffffffffffffffffffffffffff1614610814576040517f51c65eae00000000000000000000000000000000000000000000000000000000815260040160405180910390fd5b61085e60075f3373ffffffffffffffffffffffffffffffffffffffff1673ffffffffffffffffffffffffffffffffffffffff1681526020019081526020015f2054875f0151610f5f565b94505050505092915050565b5f61088733846108828561087d90613217565b61103b565b6110ae565b6001905092915050565b5f6108a18263ffffffff16611210565b90505f6108fd6108ee60075f3373ffffffffffffffffffffffffffffffffffffffff1673ffffffffffffffffffffffffffffffffffffffff1681526020019081526020015f205484611222565b6108f75f611210565b8461126b565b905061094660075f3373ffffffffffffffffffffffffffffffffffffffff1673ffffffffffffffffffffffffffffffffffffffff1681526020019081526020015f2054826112cd565b60075f3373ffffffffffffffffffffffffffffffffffffffff1673ffffffffffffffffffffffffffffffffffffffff1681526020019081526020015f2081905550610993600954826112cd565b6009819055506109a9338463ffffffff16611316565b505050565b5f5f5f8373ffffffffffffffffffffffffffffffffffffffff1673ffffffffffffffffffffffffffffffffffffffff1681526020019081526020015f20549050919050565b5f6060805f5f5f6060610a04611395565b610a0c6113d0565b46305f5f1b5f67ffffffffffffffff811115610a2b57610a2a612ad7565b5b604051908082528060200260200182016040528015610a595781602001602082028036833780820191505090505b507f0f00000000000000000000000000000000000000000000000000000000000000959493929190965096509650965096509650965090919293949596565b606060048054610aa7906130f3565b80601f0160208091040260200160405190810160405280929190818152602001828054610ad3906130f3565b8015610b1e5780601f10610af557610100808354040283529160200191610b1e565b820191905f5260205f20905b815481529060010190602001808311610b0157829003601f168201915b5050505050905090565b8063ffffffff16610b38336109ae565b1015610b70576040517ffda7bbda00000000000000000000000000000000000000000000000000000000815260040160405180910390fd5b610b80338263ffffffff1661140b565b5f610b908263ffffffff16611210565b9050610bd960075f3373ffffffffffffffffffffffffffffffffffffffff1673ffffffffffffffffffffffffffffffffffffffff1681526020019081526020015f20548261148a565b60075f3373ffffffffffffffffffffffffffffffffffffffff1673ffffffffffffffffffffffffffffffffffffffff1681526020019081526020015f2081905550610c266009548261148a565b6009819055505050565b610c3a3382611316565b50565b5f5f610c47610d80565b9050610c54818585610e2c565b600191505092915050565b5f5f8290505f610c708633846114d3565b9050610c7d86868361150e565b5080925050509392505050565b5f610c9633848461150e565b905092915050565b5f60015f8473ffffffffffffffffffffffffffffffffffffffff1673ffffffffffffffffffffffffffffffffffffffff1681526020019081526020015f205f8373ffffffffffffffffffffffffffffffffffffffff1673ffffffffffffffffffffffffffffffffffffffff1681526020019081526020015f2054905092915050565b5f5f610d3483610d2f90613217565b61103b565b90505f610d428633846114d3565b9050610d4f86868361150e565b5080925050509392505050565b5f610d7883610d7384610d6e90613217565b61103b565b610c8a565b905092915050565b5f33905090565b610d948383836001611686565b505050565b5f610da48484610c9e565b90507fffffffffffffffffffffffffffffffffffffffffffffffffffffffffffffffff811015610e265781811015610e17578281836040517ffb8f41b2000000000000000000000000000000000000000000000000000000008152600401610e0e93929190613229565b60405180910390fd5b610e2584848484035f611686565b5b50505050565b5f73ffffffffffffffffffffffffffffffffffffffff168373ffffffffffffffffffffffffffffffffffffffff1603610e9c575f6040517f96c6fd1e000000000000000000000000000000000000000000000000000000008152600401610e93919061325e565b60405180910390fd5b5f73ffffffffffffffffffffffffffffffffffffffff168273ffffffffffffffffffffffffffffffffffffffff1603610f0c575f6040517fec442f05000000000000000000000000000000000000000000000000000000008152600401610f03919061325e565b60405180910390fd5b610f17838383611855565b505050565b5f610f2e610f28611a6e565b83611b24565b9050919050565b5f5f5f5f610f438686611b64565b925092509250610f538282611bb9565b82935050505092915050565b60605f8390508083604051602001610f78929190613277565b60405160208183030381529060405291505092915050565b5f610f9a8261103b565b9050610fe360075f8573ffffffffffffffffffffffffffffffffffffffff1673ffffffffffffffffffffffffffffffffffffffff1681526020019081526020015f20548261148a565b60075f8573ffffffffffffffffffffffffffffffffffffffff1673ffffffffffffffffffffffffffffffffffffffff1681526020019081526020015f20819055506110306009548261148a565b600981905550505050565b5f5f600490508060ff16836040015160ff1614611095578260400151816040517f67cf307100000000000000000000000000000000000000000000000000000000815260040161108c92919061329e565b60405180910390fd5b6110a66110a184611d1b565b611d5d565b915050919050565b5f73ffffffffffffffffffffffffffffffffffffffff168373ffffffffffffffffffffffffffffffffffffffff160361111e575f6040517fe602df05000000000000000000000000000000000000000000000000000000008152600401611115919061325e565b60405180910390fd5b5f73ffffffffffffffffffffffffffffffffffffffff168273ffffffffffffffffffffffffffffffffffffffff160361118e575f6040517f94280d62000000000000000000000000000000000000000000000000000000008152600401611185919061325e565b60405180910390fd5b8060085f8573ffffffffffffffffffffffffffffffffffffffff1673ffffffffffffffffffffffffffffffffffffffff1681526020019081526020015f205f8473ffffffffffffffffffffffffffffffffffffffff1673ffffffffffffffffffffffffffffffffffffffff1681526020019081526020015f2081905550505050565b5f61121b825f611df4565b9050919050565b5f61122c83611e0e565b61123c576112395f611210565b92505b61124582611e0e565b611255576112525f611210565b91505b611263600484846015611e1f565b905092915050565b5f61127584611f0e565b611285576112825f611f1f565b93505b61128e83611e0e565b61129e5761129b5f611210565b92505b6112a782611e0e565b6112b7576112b45f611210565b91505b6112c46004858585611f31565b90509392505050565b5f6112d783611e0e565b6112e7576112e45f611210565b92505b6112f082611e0e565b611300576112fd5f611210565b91505b61130e600484846007611e1f565b905092915050565b5f73ffffffffffffffffffffffffffffffffffffffff168273ffffffffffffffffffffffffffffffffffffffff1603611386575f6040517fec442f0500000000000000000000000000000000000000000000000000000000815260040161137d919061325e565b60405180910390fd5b6113915f8383611855565b5050565b60606113cb60057f000000000000000000000000000000000000000000000000000000000000000061202290919063ffffffff16565b905090565b606061140660067f000000000000000000000000000000000000000000000000000000000000000061202290919063ffffffff16565b905090565b5f73ffffffffffffffffffffffffffffffffffffffff168273ffffffffffffffffffffffffffffffffffffffff160361147b575f6040517f96c6fd1e000000000000000000000000000000000000000000000000000000008152600401611472919061325e565b60405180910390fd5b611486825f83611855565b5050565b5f61149483611e0e565b6114a4576114a15f611210565b92505b6114ad82611e0e565b6114bd576114ba5f611210565b91505b6114cb600484846008611e1f565b905092915050565b5f5f6114df85856105a9565b90505f6114ec82856120cf565b905061150286866114fd85856112cd565b6110ae565b80925050509392505050565b5f5f61156961155a8460075f8973ffffffffffffffffffffffffffffffffffffffff1673ffffffffffffffffffffffffffffffffffffffff1681526020019081526020015f2054612118565b846115645f611210565b61126b565b90506115b260075f8673ffffffffffffffffffffffffffffffffffffffff1673ffffffffffffffffffffffffffffffffffffffff1681526020019081526020015f20548261148a565b60075f8673ffffffffffffffffffffffffffffffffffffffff1673ffffffffffffffffffffffffffffffffffffffff1681526020019081526020015f208190555061163a60075f8773ffffffffffffffffffffffffffffffffffffffff1673ffffffffffffffffffffffffffffffffffffffff1681526020019081526020015f2054826112cd565b60075f8773ffffffffffffffffffffffffffffffffffffffff1673ffffffffffffffffffffffffffffffffffffffff1681526020019081526020015f2081905550809150509392505050565b5f73ffffffffffffffffffffffffffffffffffffffff168473ffffffffffffffffffffffffffffffffffffffff16036116f6575f6040517fe602df050000000000000000000000000000000000000000000000000000000081526004016116ed919061325e565b60405180910390fd5b5f73ffffffffffffffffffffffffffffffffffffffff168373ffffffffffffffffffffffffffffffffffffffff1603611766575f6040517f94280d6200000000000000000000000000000000000000000000000000000000815260040161175d919061325e565b60405180910390fd5b8160015f8673ffffffffffffffffffffffffffffffffffffffff1673ffffffffffffffffffffffffffffffffffffffff1681526020019081526020015f205f8573ffffffffffffffffffffffffffffffffffffffff1673ffffffffffffffffffffffffffffffffffffffff1681526020019081526020015f2081905550801561184f578273ffffffffffffffffffffffffffffffffffffffff168473ffffffffffffffffffffffffffffffffffffffff167f8c5be1e5ebec7d5bd14f71427d1e84f3dd0314c0f7b2291e5b200ac8c7c3b925846040516118469190612853565b60405180910390a35b50505050565b5f73ffffffffffffffffffffffffffffffffffffffff168373ffffffffffffffffffffffffffffffffffffffff16036118a5578060025f82825461189991906132f2565b92505081905550611973565b5f5f5f8573ffffffffffffffffffffffffffffffffffffffff1673ffffffffffffffffffffffffffffffffffffffff1681526020019081526020015f205490508181101561192e578381836040517fe450d38c00000000000000000000000000000000000000000000000000000000815260040161192593929190613229565b60405180910390fd5b8181035f5f8673ffffffffffffffffffffffffffffffffffffffff1673ffffffffffffffffffffffffffffffffffffffff1681526020019081526020015f2081905550505b5f73ffffffffffffffffffffffffffffffffffffffff168273ffffffffffffffffffffffffffffffffffffffff16036119ba578060025f8282540392505081905550611a04565b805f5f8473ffffffffffffffffffffffffffffffffffffffff1673ffffffffffffffffffffffffffffffffffffffff1681526020019081526020015f205f82825401925050819055505b8173ffffffffffffffffffffffffffffffffffffffff168373ffffffffffffffffffffffffffffffffffffffff167fddf252ad1be2c89b69c2b068fc378daa952ba7f163c4a11628f55a4df523b3ef83604051611a619190612853565b60405180910390a3505050565b5f7f000000000000000000000000000000000000000000000000000000000000000073ffffffffffffffffffffffffffffffffffffffff163073ffffffffffffffffffffffffffffffffffffffff16148015611ae957507f000000000000000000000000000000000000000000000000000000000000000046145b15611b16577f00000000000000000000000000000000000000000000000000000000000000009050611b21565b611b1e612161565b90505b90565b5f6040517f190100000000000000000000000000000000000000000000000000000000000081528360028201528260228201526042812091505092915050565b5f5f5f6041845103611ba4575f5f5f602087015192506040870151915060608701515f1a9050611b96888285856121f6565b955095509550505050611bb2565b5f600285515f1b9250925092505b9250925092565b5f6003811115611bcc57611bcb613325565b5b826003811115611bdf57611bde613325565b5b0315611d175760016003811115611bf957611bf8613325565b5b826003811115611c0c57611c0b613325565b5b03611c43576040517ff645eedf00000000000000000000000000000000000000000000000000000000815260040160405180910390fd5b60026003811115611c5757611c56613325565b5b826003811115611c6a57611c69613325565b5b03611cae57805f1c6040517ffce698f7000000000000000000000000000000000000000000000000000000008152600401611ca59190612853565b60405180910390fd5b600380811115611cc157611cc0613325565b5b826003811115611cd457611cd3613325565b5b03611d1657806040517fd78bce0c000000000000000000000000000000000000000000000000000000008152600401611d0d9190613352565b60405180910390fd5b5b5050565b611d2361267a565b6040518060800160405280835f01518152602001836020015160ff168152602001600460ff16815260200183606001518152509050919050565b5f73020000000000000000000000000000000000008073ffffffffffffffffffffffffffffffffffffffff166327f9c76283336040518363ffffffff1660e01b8152600401611dad929190613422565b6020604051808303815f875af1158015611dc9573d5f5f3e3d5ffd5b505050506040513d601f19601f82011682018060405250810190611ded9190613464565b9050919050565b5f5f611e02846004856122dd565b90508091505092915050565b5f611e18826123d8565b9050919050565b5f73020000000000000000000000000000000000008073ffffffffffffffffffffffffffffffffffffffff16631888debd8684611e5c88886123e4565b5f67ffffffffffffffff811115611e7657611e75612ad7565b5b604051908082528060200260200182016040528015611ea45781602001602082028036833780820191505090505b506040518563ffffffff1660e01b8152600401611ec494939291906134d5565b6020604051808303815f875af1158015611ee0573d5f5f3e3d5ffd5b505050506040513d601f19601f82011682018060405250810190611f049190613464565b9050949350505050565b5f611f18826123d8565b9050919050565b5f611f2a825f61247e565b9050919050565b5f73020000000000000000000000000000000000008073ffffffffffffffffffffffffffffffffffffffff16631888debd866004611f708888886124a7565b5f67ffffffffffffffff811115611f8a57611f89612ad7565b5b604051908082528060200260200182016040528015611fb85781602001602082028036833780820191505090505b506040518563ffffffff1660e01b8152600401611fd894939291906134d5565b6020604051808303815f875af1158015611ff4573d5f5f3e3d5ffd5b505050506040513d601f19601f820116820180604052508101906120189190613464565b9050949350505050565b606060ff5f1b831461203e5761203783612563565b90506120c9565b81805461204a906130f3565b80601f0160208091040260200160405190810160405280929190818152602001828054612076906130f3565b80156120c15780601f10612098576101008083540402835291602001916120c1565b820191905f5260205f20905b8154815290600101906020018083116120a457829003601f168201915b505050505090505b92915050565b5f6120d983611e0e565b6120e9576120e65f611210565b92505b6120f282611e0e565b612102576120ff5f611210565b91505b612110600484846016611e1f565b905092915050565b5f61212283611e0e565b6121325761212f5f611210565b92505b61213b82611e0e565b61214b576121485f611210565b91505b612159600484846014611e1f565b905092915050565b5f7f8b73c3c69bb8fe3d512ecc4cf759cc79239f7b179b0ffacaa9a75d522b39400f7f00000000000000000000000000000000000000000000000000000000000000007f000000000000000000000000000000000000000000000000000000000000000046306040516020016121db959493929190613526565b60405160208183030381529060405280519060200120905090565b5f5f5f7f7fffffffffffffffffffffffffffffff5d576e7357a4501ddfe92f46681b20a0845f1c1115612232575f6003859250925092506122d3565b5f6001888888886040515f81526020016040526040516122559493929190613577565b6020604051602081039080840390855afa158015612275573d5f5f3e3d5ffd5b5050506020604051035190505f73ffffffffffffffffffffffffffffffffffffffff168173ffffffffffffffffffffffffffffffffffffffff16036122c6575f60015f5f1b935093509350506122d3565b805f5f5f1b935093509350505b9450945094915050565b5f73020000000000000000000000000000000000008073ffffffffffffffffffffffffffffffffffffffff16631888debd84601a5f67ffffffffffffffff81111561232b5761232a612ad7565b5b6040519080825280602002602001820160405280156123595781602001602082028036833780820191505090505b50612370898960ff1661236b8a6125d5565b6124a7565b6040518563ffffffff1660e01b815260040161238f94939291906134d5565b6020604051808303815f875af11580156123ab573d5f5f3e3d5ffd5b505050506040513d601f19601f820116820180604052508101906123cf9190613464565b90509392505050565b5f5f8214159050919050565b60605f600267ffffffffffffffff81111561240257612401612ad7565b5b6040519080825280602002602001820160405280156124305781602001602082028036833780820191505090505b50905083815f81518110612447576124466135ba565b5b6020026020010181815250508281600181518110612468576124676135ba565b5b6020026020010181815250508091505092915050565b5f5f5f9050831561248e57600190505b5f61249a825f866122dd565b9050809250505092915050565b60605f600367ffffffffffffffff8111156124c5576124c4612ad7565b5b6040519080825280602002602001820160405280156124f35781602001602082028036833780820191505090505b50905084815f8151811061250a576125096135ba565b5b602002602001018181525050838160018151811061252b5761252a6135ba565b5b602002602001018181525050828160028151811061254c5761254b6135ba565b5b602002602001018181525050809150509392505050565b60605f61256f8361262c565b90505f602067ffffffffffffffff81111561258d5761258c612ad7565b5b6040519080825280601f01601f1916602001820160405280156125bf5781602001600182028036833780820191505090505b5090508181528360208201528092505050919050565b5f5f8260030b121561261e57816040517f8f568bf80000000000000000000000000000000000000000000000000000000081526004016126159190613602565b60405180910390fd5b8163ffffffff169050919050565b5f5f60ff835f1c169050601f811115612671576040517fb3512b0c00000000000000000000000000000000000000000000000000000000815260040160405180910390fd5b80915050919050565b60405180608001604052805f81526020015f60ff1681526020015f60ff168152602001606081525090565b5f81519050919050565b5f82825260208201905092915050565b8281835e5f83830152505050565b5f601f19601f8301169050919050565b5f6126e7826126a5565b6126f181856126af565b93506127018185602086016126bf565b61270a816126cd565b840191505092915050565b5f6020820190508181035f83015261272d81846126dd565b905092915050565b5f604051905090565b5f5ffd5b5f5ffd5b5f73ffffffffffffffffffffffffffffffffffffffff82169050919050565b5f61276f82612746565b9050919050565b61277f81612765565b8114612789575f5ffd5b50565b5f8135905061279a81612776565b92915050565b5f819050919050565b6127b2816127a0565b81146127bc575f5ffd5b50565b5f813590506127cd816127a9565b92915050565b5f5f604083850312156127e9576127e861273e565b5b5f6127f68582860161278c565b9250506020612807858286016127bf565b9150509250929050565b5f8115159050919050565b61282581612811565b82525050565b5f60208201905061283e5f83018461281c565b92915050565b61284d816127a0565b82525050565b5f6020820190506128665f830184612844565b92915050565b5f5f5f606084860312156128835761288261273e565b5b5f6128908682870161278c565b93505060206128a18682870161278c565b92505060406128b2868287016127bf565b9150509250925092565b5f5f604083850312156128d2576128d161273e565b5b5f6128df8582860161278c565b92505060206128f08582860161278c565b9150509250929050565b5f819050919050565b5f61291d612918612913846127a0565b6128fa565b6127a0565b9050919050565b61292d81612903565b82525050565b5f6020820190506129465f830184612924565b92915050565b5f60ff82169050919050565b6129618161294c565b82525050565b5f60208201905061297a5f830184612958565b92915050565b5f5ffd5b5f6040828403121561299957612998612980565b5b81905092915050565b5f5f604083850312156129b8576129b761273e565b5b5f6129c58582860161278c565b925050602083013567ffffffffffffffff8111156129e6576129e5612742565b5b6129f285828601612984565b9150509250929050565b5f81519050919050565b5f82825260208201905092915050565b5f612a20826129fc565b612a2a8185612a06565b9350612a3a8185602086016126bf565b612a43816126cd565b840191505092915050565b5f6020820190508181035f830152612a668184612a16565b905092915050565b5f60808284031215612a8357612a82612980565b5b81905092915050565b5f60208284031215612aa157612aa061273e565b5b5f82013567ffffffffffffffff811115612abe57612abd612742565b5b612aca84828501612a6e565b91505092915050565b5f5ffd5b7f4e487b71000000000000000000000000000000000000000000000000000000005f52604160045260245ffd5b612b0d826126cd565b810181811067ffffffffffffffff82111715612b2c57612b2b612ad7565b5b80604052505050565b5f612b3e612735565b9050612b4a8282612b04565b919050565b5f5ffd5b5f819050919050565b612b6581612b53565b8114612b6f575f5ffd5b50565b5f81359050612b8081612b5c565b92915050565b5f5ffd5b5f5ffd5b5f67ffffffffffffffff821115612ba857612ba7612ad7565b5b612bb1826126cd565b9050602081019050919050565b828183375f83830152505050565b5f612bde612bd984612b8e565b612b35565b905082815260208101848484011115612bfa57612bf9612b8a565b5b612c05848285612bbe565b509392505050565b5f82601f830112612c2157612c20612b86565b5b8135612c31848260208601612bcc565b91505092915050565b5f60408284031215612c4f57612c4e612ad3565b5b612c596040612b35565b90505f612c6884828501612b72565b5f83015250602082013567ffffffffffffffff811115612c8b57612c8a612b4f565b5b612c9784828501612c0d565b60208301525092915050565b5f5f60408385031215612cb957612cb861273e565b5b5f612cc68582860161278c565b925050602083013567ffffffffffffffff811115612ce757612ce6612742565b5b612cf385828601612c3a565b9150509250929050565b5f5f60408385031215612d1357612d1261273e565b5b5f612d208582860161278c565b925050602083013567ffffffffffffffff811115612d4157612d40612742565b5b612d4d85828601612a6e565b9150509250929050565b5f63ffffffff82169050919050565b612d6f81612d57565b8114612d79575f5ffd5b50565b5f81359050612d8a81612d66565b92915050565b5f60208284031215612da557612da461273e565b5b5f612db284828501612d7c565b91505092915050565b5f60208284031215612dd057612dcf61273e565b5b5f612ddd8482850161278c565b91505092915050565b5f7fff0000000000000000000000000000000000000000000000000000000000000082169050919050565b612e1a81612de6565b82525050565b612e2981612765565b82525050565b612e3881612b53565b82525050565b5f81519050919050565b5f82825260208201905092915050565b5f819050602082019050919050565b612e70816127a0565b82525050565b5f612e818383612e67565b60208301905092915050565b5f602082019050919050565b5f612ea382612e3e565b612ead8185612e48565b9350612eb883612e58565b805f5b83811015612ee8578151612ecf8882612e76565b9750612eda83612e8d565b925050600181019050612ebb565b5085935050505092915050565b5f60e082019050612f085f83018a612e11565b8181036020830152612f1a81896126dd565b90508181036040830152612f2e81886126dd565b9050612f3d6060830187612844565b612f4a6080830186612e20565b612f5760a0830185612e2f565b81810360c0830152612f698184612e99565b905098975050505050505050565b5f60208284031215612f8c57612f8b61273e565b5b5f612f99848285016127bf565b91505092915050565b612fab816127a0565b8114612fb5575f5ffd5b50565b5f81359050612fc681612fa2565b92915050565b5f5f5f60608486031215612fe357612fe261273e565b5b5f612ff08682870161278c565b93505060206130018682870161278c565b925050604061301286828701612fb8565b9150509250925092565b5f5f604083850312156130325761303161273e565b5b5f61303f8582860161278c565b925050602061305085828601612fb8565b9150509250929050565b5f5f5f606084860312156130715761307061273e565b5b5f61307e8682870161278c565b935050602061308f8682870161278c565b925050604084013567ffffffffffffffff8111156130b0576130af612742565b5b6130bc86828701612a6e565b9150509250925092565b7f4e487b71000000000000000000000000000000000000000000000000000000005f52602260045260245ffd5b5f600282049050600182168061310a57607f821691505b60208210810361311d5761311c6130c6565b5b50919050565b5f61312e3683612c3a565b9050919050565b5f6040820190506131485f830185612e2f565b6131556020830184612e2f565b9392505050565b6131658161294c565b811461316f575f5ffd5b50565b5f813590506131808161315c565b92915050565b5f6080828403121561319b5761319a612ad3565b5b6131a56080612b35565b90505f6131b4848285016127bf565b5f8301525060206131c784828501613172565b60208301525060406131db84828501613172565b604083015250606082013567ffffffffffffffff8111156131ff576131fe612b4f565b5b61320b84828501612c0d565b60608301525092915050565b5f6132223683613186565b9050919050565b5f60608201905061323c5f830186612e20565b6132496020830185612844565b6132566040830184612844565b949350505050565b5f6020820190506132715f830184612e20565b92915050565b5f60408201905061328a5f830185612844565b6132976020830184612e2f565b9392505050565b5f6040820190506132b15f830185612958565b6132be6020830184612958565b9392505050565b7f4e487b71000000000000000000000000000000000000000000000000000000005f52601160045260245ffd5b5f6132fc826127a0565b9150613307836127a0565b925082820190508082111561331f5761331e6132c5565b5b92915050565b7f4e487b71000000000000000000000000000000000000000000000000000000005f52602160045260245ffd5b5f6020820190506133655f830184612e2f565b92915050565b6133748161294c565b82525050565b5f82825260208201905092915050565b5f613394826129fc565b61339e818561337a565b93506133ae8185602086016126bf565b6133b7816126cd565b840191505092915050565b5f608083015f8301516133d75f860182612e67565b5060208301516133ea602086018261336b565b5060408301516133fd604086018261336b565b5060608301518482036060860152613415828261338a565b9150508091505092915050565b5f6040820190508181035f83015261343a81856133c2565b90506134496020830184612e20565b9392505050565b5f8151905061345e816127a9565b92915050565b5f602082840312156134795761347861273e565b5b5f61348684828501613450565b91505092915050565b602081106134a05761349f613325565b5b50565b5f8190506134b08261348f565b919050565b5f6134bf826134a3565b9050919050565b6134cf816134b5565b82525050565b5f6080820190506134e85f830187612958565b6134f560208301866134c6565b81810360408301526135078185612e99565b9050818103606083015261351b8184612e99565b905095945050505050565b5f60a0820190506135395f830188612e2f565b6135466020830187612e2f565b6135536040830186612e2f565b6135606060830185612844565b61356d6080830184612e20565b9695505050505050565b5f60808201905061358a5f830187612e2f565b6135976020830186612958565b6135a46040830185612e2f565b6135b16060830184612e2f565b95945050505050565b7f4e487b71000000000000000000000000000000000000000000000000000000005f52603260045260245ffd5b5f8160030b9050919050565b6135fc816135e7565b82525050565b5f6020820190506136155f8301846135f3565b9291505056fea264697066735822122063635d3620b6c934a29e8d063287ce7c6016de940d6ab89e687da95e0b5e9f7064736f6c634300081b0033","linkReferences":{}},"methodIdentifiers":{"_allowanceEncrypted(address,address)":"23db9354","allowance(address,address)":"dd62ed3e","allowanceEncrypted(address,(bytes32,bytes))":"5356c429","approve(address,uint256)":"095ea7b3","approveEncrypted(address,(uint256,uint8,uint8,bytes))":"63c05a33","balanceOf(address)":"70a08231","balanceOfEncrypted(address,(bytes32,bytes))":"60277204","decimals()":"313ce567","eip712Domain()":"84b0196e","mint(uint256)":"a0712d68","mintEncrypted((uint256,uint8,uint8,bytes))":"5fd006b1","name()":"06fdde03","symbol()":"95d89b41","totalSupply()":"18160ddd","transfer(address,uint256)":"a9059cbb","transferEncrypted(address,(uint256,uint8,uint8,bytes))":"fe229cbe","transferEncrypted(address,uint256)":"c4224c19","transferFrom(address,address,uint256)":"23b872dd","transferFromEncrypted(address,address,(uint256,uint8,uint8,bytes))":"e1a136d5","transferFromEncrypted(address,address,uint256)":"af575a00","unwrap(uint32)":"6e0505e1","wrap(uint32)":"9f284be7"},"id":4}